:020000040800F2
:1000000000500020850F0008ED0D0008F50D0008D8
:10001000FD0D0008050E00080D0E00080000000090
:10002000000000000000000000000000150E0008A5
:10003000210E0008000000002D0E0008390E0008F7
:10004000CD0F0008CD0F0008CD0F0008CD0F000820
:10005000CD0F0008CD0F0008CD0F0008CD0F000810
:10006000CD0F0008CD0F0008CD0F0008CD0F000800
:10007000CD0F0008CD0F0008CD0F0008CD0F0008F0
:10008000CD0F0008CD0F0008CD0F0008450E000869
:10009000590E0008CD0F0008CD0F0008CD0F000845
:1000A000CD0F0008CD0F0008CD0F0008CD0F0008C0
:1000B000CD0F0008CD0F0008CD0F0008CD0F0008B0
:1000C000CD0F0008CD0F0008CD0F0008CD0F0008A0
:1000D000CD0F0008CD0F00086D0E0008CD0F0008F1
:1000E000CD0F0008CD0F0008CD0F00080000000064
:1000F0000000000000000000000000000000000000
:0C01000000000000000000005FF808F1A3
:10010C0010B5054C237833B9044B13B10448AFF345
:10011C0000800123237010BD0802002000000000A5
:10012C00789C000808B5034B1BB103490348AFF397
:10013C00008008BD000000000C020020789C000824
:10014C0010F8012B11F8013B012A28BF9A42F7D075
:10015C00D01A704780B582B000AF44F620630122FC
:10016C0078214C4801F052FD0346002B01D00023AE
:10017C008BE040F6C4137B6002E07B68013B7B6044
:10018C007B68002BF9D1AE220021782000F05EFABA
:10019C00B0220021782000F059FA81220021782029
:1001AC0000F054FAFF220021782000F04FFAA1222F
:1001BC000021782000F04AFAA6220021782000F0D5
:1001CC0045FAA8220021782000F040FA3F220021B5
:1001DC00782000F03BFAAD220021782000F036FAAE
:1001EC008B220021782000F031FA32220021782075
:1001FC0000F02CFAC8220021782000F027FAD32234
:10020C000021782000F022FA00220021782000F052
:10021C001DFAD5220021782000F018FA8022002146
:10022C00782000F013FAD9220021782000F00EFA81
:10023C001F220021782000F009FADA220021782010
:10024C0000F004FA12220021782000F0FFF9DB22E2
:10025C000021782000F0FAF940220021782000F0EB
:10026C00F5F9AF220021782000F0F0F9002000F021
:10027C004FF800F013F8084B00221A80064B0022AE
:10028C005A80054B01225A71012318460837BD4686
:10029C0080BD00BF2C0600202406002080B582B053
:1002AC0000AF0223BB710023FB7127E0FB79503BAD
:1002BC00DBB21A460021782000F0C8F9BB7903F0B4
:1002CC000F03DBB21A460021782000F0BFF9BB798E
:1002DC001B09DBB243F01003DBB21A460021782075
:1002EC0000F0B4F9FB79DB01084A1A448023402161
:1002FC00782000F045F9FB790133FB71FB79072B72
:10030C00D4D900BF00BF0837BD4680BD24020020F1
:10031C0080B582B000AF0346FB71FB79002B01D195
:10032C00002300E0FF234FF480621946034809F0D4
:10033C004FFC00BF0837BD4680BD00BF2402002023
:10034C0080B483B000AF0346FB800B46BB801346E2
:10035C00FB70FB887F2B48D8BB883F2B45D8254B9F
:10036C001B79002B06D0FB78002B0CBF012300233C
:10037C00DBB2FB70FB78012B1AD1FA88BB88DB0847
:10038C0098B20346DB0113441B4AD35C5AB2BB88B8
:10039C0003F00703012101FA03F35BB2134359B2D3
:1003AC00FA880346DB011344C9B2134AD1541DE049
:1003BC00FA88BB88DB0898B20346DB0113440E4A6B
:1003CC00D35C5AB2BB8803F00703012101FA03F393
:1003DC005BB2DB435BB2134059B2FA880346DB01D4
:1003EC001344C9B2044AD15400E000BF0C37BD46D7
:1003FC0080BC7047240600202402002080B483B007
:10040C0000AF03460A46FB801346BB80054AFB88B7
:10041C001380044ABB88538000BF0C37BD4680BC98
:10042C00704700BF2406002080B586B000AF03469D
:10043C003960FB711346BB71394B1B881A463B68FC
:10044C001B7813447F2B07DC354B5B881A463B68C3
:10045C005B7813443F2B01DD00235DE000237B61BF
:10046C004BE03B685A68FB79203B3968497801FBC3
:10047C0003F319467B690B445B0013441B88FB6038
:10048C0000233B6130E0FA683B6902FA03F303F4A2
:10049C000043002B10D0224B1A883B699BB21344AB
:1004AC0098B21F4B5A887B699BB213449BB2BA79A2
:1004BC001946FFF745FF14E0194B1A883B699BB2AC
:1004CC00134498B2164B5A887B699BB2134499B269
:1004DC00BB79002B0CBF01230023DBB21A46FFF7BC
:1004EC002FFF3B6901333B613B681B781A463B6924
:1004FC009342C8D37B6901337B613B685B781A46B6
:10050C007B699342ADD3064B1B883A68127813442F
:10051C009AB2034B1A80FB7918461837BD4680BD3A
:10052C002406002080B584B000AFF860B960134693
:10053C00FB7112E0FB681B78FA79B9681846FFF773
:10054C0073FF03461A46FB681B789A4202D0FB687D
:10055C001B7808E0FB680133FB60FB681B78002B01
:10056C00E8D1FB681B7818461037BD4680BD80B5B6
:10057C0000AF0020FFF7CCFEFFF790FE00BF80BD60
:10058C0090B5C7B002AF0446084607F58871A1F5CF
:10059C0088710A60194607F58873A3F2091322467D
:1005AC001A7007F58873A3F5857302461A7007F560
:1005BC008873A3F586730A461A8007F58873A3F52A
:1005CC00827307F58872A2F5857212781A7000236F
:1005DC0087F80F3115E097F80F3107F58872A2F5FF
:1005EC00887212681A4497F80F310133117807F5A5
:1005FC008872A2F58272D15497F80F31013387F8C3
:10060C000F3197F80F319BB207F58872A2F58672FD
:10061C0012889A42DFD807F58873A3F209131B7866
:10062C0099B207F58873A3F586731B8801339BB2C7
:10063C0007F10C020A200090034801F0E9F900BF11
:10064C0007F58A77BD4690BD2C06002080B586B094
:10065C0002AF0346FB710B46BB7113467B71BB7932
:10066C003B737B797B73FB7999B207F10C020A23FC
:10067C0000930223034801F0CBF900BF1037BD46AD
:10068C0080BD00BF2C06002080B588B000AF07F1FC
:10069C00100300221A605A609A60DA601D4B9B6945
:1006AC001C4A43F0200393611A4B9B6903F020030F
:1006BC00FB60FB68174B9B69164A43F0040393617C
:1006CC00144B9B6903F00403BB60BB68114B9B6923
:1006DC00104A43F0080393610E4B9B6903F0080327
:1006EC007B607B68002210210B4801F035F8102349
:1006FC003B6101237B610023BB610223FB6107F19A
:10070C0010031946044800F0A3FE00BF2037BD4675
:10071C0080BD00BF001002400008014080B500AF52
:10072C00124B134A1A60114B124A5A600F4B00229B
:10073C009A600E4B0022DA600C4B4FF480421A6127
:10074C000A4B00225A61094B00229A61074B002286
:10075C00DA61064B00221A62044801F015F80346D0
:10076C00002B01D000F004FB00BF80BD2C06002044
:10077C0000540040801A060080B588B000AF786045
:10078C0007F1100300221A605A609A60DA607B68E5
:10079C001B68154A934223D1144B9B69134A43F0AF
:1007AC0008039361114B9B6903F00803FB60FB6822
:1007BC00C0233B6112237B610323FB6107F1100310
:1007CC0019460B4800F044FE084BDB69074A43F41A
:1007DC000013D361054BDB6903F40013BB60BB68EA
:1007EC0000BF2037BD4680BD0054004000100240C1
:1007FC00000C0140B0B48BB000AFF8600B467A60CF
:10080C00FB72244B07F114041D460FCD0FC42B684B
:10081C002370002387F827302AE097F82730FA68EE
:10082C0013441B781B09DBB203F00F0297F8273037
:10083C005B0019467B680B4428323A4412F8142C9E
:10084C001A7097F82730FA6813441B7803F00F02DC
:10085C0097F827305B00013379680B4428323A440F
:10086C0012F8142C1A7097F82730013387F82730B8
:10087C0097F82720FB7A9A42CFD3FB7A5B001A4673
:10088C007B68134400221A7000BF2C37BD46B0BCE5
:10089C00704700BF909C000880B588B000AF7860AE
:1008AC007B68002B71D07B681B78002B6DD039498D
:1008BC007868FFF745FC0346002B05D100F0DAFB06
:1008CC000346354A136061E080227968314809F0AB
:1008DC0087F9304B002283F8802000F0CBFB0346D5
:1008EC002D4A1360012210212C4800F035FF00F036
:1008FC00C1FB034650332A4A1360FFF738FE002130
:10090C000020FFF77BFD012226492748FFF70AFE4E
:10091C000C23FB7712237B772DE00023BB770CE0B5
:10092C007B685A1C7A60BA7F511CB97711461A78C9
:10093C0001F120033B4403F8182C7B681B78002B37
:10094C0003D0BA7F7B7F9A42EAD3BB7F20333B44F0
:10095C00002203F8182CFB7F9BB219460020FFF7EE
:10096C004DFD07F1080301220E491846FFF7DAFD89
:10097C00FB7F0C33FB777B681B78002B02D0FB7F53
:10098C00362BCAD9FFF78AFC00E000BF2037BD46E2
:10099C0080BD00BF080000208C080020000801402A
:1009AC009408002000000020A49C000880B500AF33
:1009BC0015491648FFF7C4FB0346002B22D0134BF6
:1009CC00114A92E8030018600433198000221021A8
:1009DC000F4800F0C1FEFFF7CAFD00210020FFF711
:1009EC000DFD01220B490C48FFF79CFD0C2100204A
:1009FC00FFF704FD012207490848FFF793FDFFF7B5
:100A0C004DFC00E000BF80BDAC9C0008080000203D
:100A1C000008014000000020A49C0008B49C0008C1
:100A2C0080B5A6B000AF00F0CDFA00F011F9FFF7D9
:100A3C002BFEFFF773FE00F023FA08F001FC0122F5
:100A4C007549764803F06BFF642000F01DFB6423AE
:100A5C000E227349714803F0D7FEFFF77BFBFFF7BB
:100A6C0086FDFFF71BFCFFF7A1FF002210216D484C
:100A7C0000F072FE6C4B1B889BB2092B63D900F003
:100A8C00F9FA0246694B1B68D31A0A2B5BD9684BDF
:100A9C001B7A87F8963097F89630002B16D097F87B
:100AAC0096300833604A128892B293420EDA614B48
:100ABC00C7F890303A1D97F896301946D7F8900041
:100ACC00FFF798FE3B1D1846FFF7E6FE00F0D2FA42
:100ADC00C7F88C0007E000F0CDFA0246D7F88C304E
:100AEC00D31A142B0AD8504B1B889BB2194650486A
:100AFC0008F088FC0346012BEDD000E000BF4A4B08
:100B0C001B889BB2002B18D000F0B4FAC7F88800F1
:100B1C0007E000F0AFFA0246D7F88830D31A142B4E
:100B2C000AD8414B1B889BB21946414808F06AFC15
:100B3C000346012BEDD000E000BF3B4B00221A8096
:100B4C00394B00221A8000F095FA02463A4B1B688A
:100B5C00D31A42F21072934201D9FFF727FF0023F8
:100B6C0087F8973000F086FA0246304B1B68D31A90
:100B7C00632B03D8012387F8973002E0002387F812
:100B8C00973097F89730002B18D000F073FA024684
:100B9C002A4B1B689A4219D301221021214800F0DC
:100BAC00DBFD00F067FA03465033254A136000F072
:100BBC0061FA03466433214A136007E000221021D6
:100BCC00184800F0C9FD1E4B00221A601C4B1B6814
:100BDC00002B0ED000F04EFA0246194B1B689A42BD
:100BEC0007D3002210210F4800F0B6FD144B002251
:100BFC001A60144B1B78DBB2002B3FF43BAF114B4C
:100C0C0000221A70104B1B689AB264230F490348D8
:100C1C0003F0FAFD2EE700BF8006002098080020A4
:100C2C006CA40008000801408408002088080020FB
:100C3C00840600208D0600208C08002090080020DF
:100C4C0094080020B0170020AC170020AC13002033
:100C5C0080B594B000AF07F1280328220021184674
:100C6C0008F0B6FF07F1140300221A605A609A606C
:100C7C00DA601A613B1D00221A605A609A60DA60D1
:100C8C000123BB624FF48033FB6200233B630123DF
:100C9C00BB6302237B644FF48033BB644FF4E013DB
:100CAC00FB6407F12803184603F098F80346002B61
:100CBC0001D000F05DF80F237B610223BB610023A0
:100CCC00FB614FF480633B6200237B6207F11403EA
:100CDC000221184603F004FB0346002B01D000F060
:100CEC0047F810237B6000233B613B1D184603F043
:100CFC0085FC0346002B01D000F03AF800BF5037BA
:100D0C00BD4680BD80B584B000AF786000F0B2F90C
:100D1C00F8607B681B68104A934219D10F4B1B88F3
:100D2C009BB2B3F5007F0BD20C4B1B889BB25A1CA9
:100D3C0091B20A4A11801A46094B1978094B9954F9
:100D4C00094AFB68136001220549084803F0E7FDD6
:100D5C0000BF1037BD4680BD004400408408002011
:100D6C0080060020840600208808002098080020B7
:100D7C0080B400AF72B600BF00BFFDE780B485B091
:100D8C0000AF154B9B69144A43F001039361124B5E
:100D9C009B6903F00103BB60BB680F4BDB690E4A18
:100DAC0043F08053D3610C4BDB6903F080537B60C1
:100DBC007B680A4B5B68FB60FB6823F0E063FB60BD
:100DCC00FB6843F00073FB60044AFB68536000BF90
:100DDC001437BD4680BC7047001002400000014033
:100DEC0080B400AF00BFFDE780B400AF00BFFDE7EB
:100DFC0080B400AF00BFFDE780B400AF00BFFDE7DB
:100E0C0080B400AF00BFFDE780B400AF00BFBD46AB
:100E1C0080BC704780B400AF00BFBD4680BC70473B
:100E2C0080B400AF00BFBD4680BC704780B500AF3A
:100E3C0000F00EF900BF80BD80B500AF024801F094
:100E4C0089FB00BF80BD00BFB419002080B500AF86
:100E5C00024801F07FFB00BF80BD00BFB419002029
:100E6C0080B500AF024803F07FFD00BF80BD00BF1E
:100E7C009808002080B400AF00BFBD4680BC70470E
:100E8C0080B500AF114B124A1A60104B4FF4E1229F
:100E9C005A600E4B00229A600C4B0022DA600B4B0E
:100EAC0000221A61094B0C225A61084B00229A61EC
:100EBC00064B0022DA61054803F056FC0346002B72
:100ECC0001D0FFF755FF00BF80BD00BF9808002080
:100EDC000044004080B588B000AF786007F1100383
:100EEC0000221A605A609A60DA607B681B681F4A9D
:100EFC00934237D11E4BDB691D4A43F40033D36157
:100F0C001B4BDB6903F40033FB60FB68184B9B69DC
:100F1C00174A43F004039361154B9B6903F00403D8
:100F2C00BB60BB6804233B6102237B610323FB6131
:100F3C0007F1100319460F4800F08AFA08233B61A9
:100F4C0000237B610023BB6107F11003194609489C
:100F5C0000F07EFA00220021262000F090F92620D5
:100F6C0000F0A9F900BF2037BD4680BD0044004009
:100F7C000010024000080140FFF77CFF0B480C49B1
:100F8C000C4A002302E0D458C4500433C4188C42D9
:100F9C00F9D3094A094C002301E013600432A24240
:100FAC00FBD308F031FEFFF73BFD7047000000203B
:100FBC0008020020B8A4000808020020AC1E002083
:100FCC00FEE7000080B500AF084B1B68074A43F0F2
:100FDC0010031360032000F047F90F2000F008F80D
:100FEC00FFF7CCFE0023184680BD00BF0020024056
:100FFC0080B582B000AF7860124B1A68124B1B7828
:10100C0019464FF47A73B3FBF1F3B2FBF3F31846C2
:10101C0000F05FF90346002B01D001230EE07B6842
:10102C000F2B0AD8002279684FF0FF3000F027F917
:10103C00064A7B681360002300E00123184608373A
:10104C00BD4680BD8C000020940000209000002044
:10105C0080B400AF054B1B781A46054B1B68134434
:10106C00034A136000BFBD4680BC7047940000204B
:10107C00E008002080B400AF024B1B681846BD4648
:10108C0080BC7047E008002080B584B000AF786069
:10109C00FFF7F0FFB8607B68FB60FB68B3F1FF3FC4
:1010AC0005D00A4B1B781A46FB681344FB6000BF43
:1010BC00FFF7E0FF0246BB68D31AFA689A42F7D8EA
:1010CC0000BF00BF1037BD4680BD00BF940000209C
:1010DC0080B485B000AF78607B6803F00703FB60D9
:1010EC000C4BDB68BB60BA684FF6FF031340BB6068
:1010FC00FB681A02BB68134343F0BF6343F400332D
:10110C00BB60044ABB68D36000BF1437BD4680BCCB
:10111C00704700BF00ED00E080B400AF044BDB680B
:10112C001B0A03F007031846BD4680BC704700BF7E
:10113C0000ED00E080B483B000AF0346FB7197F97B
:10114C000730002B0BDBFB7903F01F02064997F9E4
:10115C0007305B09012000FA02F241F8232000BF9E
:10116C000C37BD4680BC704700E100E080B483B012
:10117C0000AF03463960FB7197F90730002B0ADB8F
:10118C003B68DAB20C4997F907301201D2B20B4422
:10119C0083F800230AE03B68DAB20849FB7903F0D4
:1011AC000F03043B1201D2B20B441A7600BF0C376A
:1011BC00BD4680BC704700BF00E100E000ED00E0E0
:1011CC0080B489B000AFF860B9607A60FB6803F056
:1011DC000703FB61FB69C3F10703042B28BF04233E
:1011EC00BB61FB690433062B02D9FB69033B00E0AE
:1011FC0000237B614FF0FF32BB6902FA03F3DA4341
:10120C00BB681A407B699A404FF0FF317B6901FA49
:10121C0003F3D9437B680B40134318462437BD4670
:10122C0080BC704780B582B000AF78607B68013BB2
:10123C00B3F1807F01D301230FE00A4A7B68013BA5
:10124C0053600F214FF0FF30FFF790FF054B00224A
:10125C009A60044B07221A60002318460837BD46D3
:10126C0080BD00BF10E000E080B582B000AF7860B8
:10127C007868FFF72DFF00BF0837BD4680BD80B5ED
:10128C0086B000AF0346B9607A60FB7300237B61C4
:10129C00FFF742FF78617A68B9687869FFF790FFC9
:1012AC00024697F90F3011461846FFF75FFF00BF53
:1012BC001837BD4680BD80B582B000AF0346FB71C8
:1012CC0097F907301846FFF735FF00BF0837BD46C2
:1012DC0080BD80B582B000AF78607868FFF7A2FF60
:1012EC00034618460837BD4680BD80B485B000AFB4
:1012FC0078600023FB737B6893F82130DBB2022B00
:10130C0008D07B6804229A637B68002283F8202033
:10131C00012320E07B681B681A687B681B6822F03D
:10132C000E021A607B681B681A687B681B6822F0C7
:10133C0001021A607B681A6C7B68DB6B012101FA75
:10134C0002F25A607B68012283F821207B6800221C
:10135C0083F82020FB7B18461437BD4680BC7047B1
:10136C0080B584B000AF78600023FB737B6893F882
:10137C002130DBB2022B05D07B6804229A63012357
:10138C00FB7351E07B681B681A687B681B6822F052
:10139C000E021A607B681B681A687B681B6822F057
:1013AC0001021A607B681B68224A934229D07B6831
:1013BC001B68214A934222D07B681B681F4A9342C8
:1013CC001AD07B681B681E4A934212D07B681B683C
:1013DC001C4A93420AD07B681B681B4A934202D179
:1013EC004FF480130EE04FF080730BE04FF480331A
:1013FC0008E04FF4805305E04FF4807302E01023B3
:10140C0000E00123114A53607B68012283F82120FC
:10141C007B68002283F820207B685B6B002B03D059
:10142C007B685B6B78689847FB7B18461037BD462A
:10143C0080BD00BF080002401C000240300002408A
:10144C0044000240580002406C0002400000024080
:10145C0080B48BB000AF7860396000237B620023CE
:10146C003B6269E101227B6A02FA03F3FB613B6890
:10147C001B68FA691340BB61BA69FB699A4240F078
:10148C0058813B685B689A4A93425ED0984A934273
:10149C0075D8984A934258D0964A93426FD8964A38
:1014AC00934252D0944A934269D8944A93424CD076
:1014BC00924A934263D8924A934246D0904A9342BE
:1014CC005DD8122B2AD8122B59D801A252F823F02E
:1014DC00571500083115000843150008851500083C
:1014EC008B1500088B1500088B1500088B15000850
:1014FC008B1500088B1500088B1500088B15000840
:10150C008B1500088B1500088B1500088B1500082F
:10151C008B150008391500084D150008794A9342BF
:10152C0013D02CE03B68DB683B6229E03B68DB684E
:10153C0004333B6224E03B68DB6808333B621FE00A
:10154C003B68DB680C333B621AE03B689B68002B02
:10155C0002D104233B6213E03B689B68012B05D14D
:10156C0008233B627B68FA691A6109E008233B6235
:10157C007B68FA695A6103E000233B6200E000BF1C
:10158C00BB69FF2B01D87B6801E07B6804337B616E
:10159C00BB69FF2B02D87B6A9B0002E07B6A083B8D
:1015AC009B003B617B691A680F213B6901FA03F3CD
:1015BC00DB431A40396A3B6901FA03F31A437B692E
:1015CC001A603B685B6803F08053002B00F0B1801D
:1015DC004D4B9B694C4A43F0010393614A4B9B6909
:1015EC0003F00103BB60BB68484A7B6A9B0802336B
:1015FC0052F82330FB607B6A03F003039B000F223D
:10160C0002FA03F3DB43FA681340FB607B68404A41
:10161C00934213D07B683F4A93420DD07B683E4A7D
:10162C00934207D07B683D4A934201D1032306E0E5
:10163C00042304E0022302E0012300E000237A6A81
:10164C0002F0030292009340FA681343FB602F49A7
:10165C007B6A9B080233FA6841F823203B685B687D
:10166C0003F48013002B06D02D4B9A682C49BB69D0
:10167C0013438B6006E02A4B9A68BB69DB4328490D
:10168C0013408B603B685B6803F40013002B06D09F
:10169C00234BDA682249BB691343CB6006E0204B2D
:1016AC00DA68BB69DB431E491340CB603B685B685F
:1016BC0003F40033002B06D0194B5A681849BB6948
:1016CC0013434B6006E0164B5A68BB69DB43144965
:1016DC0013404B603B685B6803F48033002B21D0D4
:1016EC000F4B1A680E49BB6913430B6021E000BF16
:1016FC0000003210000031100000221000002110F8
:10170C0000001210000011100010024000000140F7
:10171C0000080140000C0140001001400014014081
:10172C00000401400B4B1A68BB69DB4309491340A9
:10173C000B607B6A01337B623B681A687B6A22FA16
:10174C0003F3002B7FF48EAE00BF00BF2C37BD46D9
:10175C0080BC70470004014080B483B000AF786057
:10176C000B467B8013467B707B78002B03D07A88EA
:10177C007B681A6103E07B881A047B681A6100BFDE
:10178C000C37BD4680BC704780B584B000AF786024
:10179C007B68002B01D101232BE17B6893F83D3052
:1017AC00DBB2002B06D17B68002283F83C207868E2
:1017BC00FEF7E2FF7B68242283F83D207B681B68E0
:1017CC001A687B681B6822F001021A607B681B6830
:1017DC001A687B681B6842F400421A607B681B68BD
:1017EC001A687B681B6822F400421A6002F0C0FE83
:1017FC00F8607B685B68814A934207D8FB68804A33
:10180C00934294BF01230023DBB206E0FB687D4AC0
:10181C00934294BF01230023DBB2002B01D00123A0
:10182C00E7E0FB68784AA2FB03239B0CBB607B6858
:10183C001B685B6823F03F017B681B68BA680A432E
:10184C005A607B681B681B6A23F03F017B685B68EE
:10185C006A4A934202D8BB68013309E0BB684FF473
:10186C00967202FB03F3694AA2FB03239B09013323
:10187C007A6812680B4313627B681B68DB6923F47C
:10188C004F4222F0FF027B685B685C498B4219D89F
:10189C00FB68591E7B685B685B00B1FBF3F3591C5A
:1018AC0040F6FC730B40002B0AD0FB68591E7B687A
:1018BC005B685B00B1FBF3F30133C3F30B0351E043
:1018CC0004234FE07B689B68002B11D1FB68581EEA
:1018DC007B6859680B465B000B44B0FBF3F3013398
:1018EC00C3F30B03002B0CBF01230023DBB212E06C
:1018FC00FB68581E7B6859680B469B000B4499008B
:10190C000B44B0FBF3F30133C3F30B03002B0CBFFD
:10191C0001230023DBB2002B01D0012322E07B68E2
:10192C009B68002B0ED1FB68581E7B6859680B46D0
:10193C005B000B44B0FBF3F30133C3F30B0343F431
:10194C0000430FE0FB68581E7B6859680B469B00F0
:10195C000B4499000B44B0FBF3F30133C3F30B03BB
:10196C0043F44043796809681343CB617B681B6877
:10197C001B6823F0C0017B68DA697B681B6A1A4319
:10198C007B681B680A431A607B681B689B6823F49E
:10199C00034323F0FF037A6811697A68D268114314
:1019AC007A6812680B4393607B681B68DB6823F0D2
:1019BC00FF017B685A697B689B691A437B681B68CB
:1019CC000A43DA607B681B681A687B681B6842F004
:1019DC0001021A607B6800221A647B68202283F85B
:1019EC003D207B6800221A637B68002283F83E202E
:1019FC00002318461037BD4680BD00BFA0860100ED
:101A0C007F841E00FF083D0083DE1B43D34D621014
:101A1C0080B588B002AFF8607A601A460B467B81BD
:101A2C0013463B81FFF726FB7861FB6893F83D304A
:101A3C00DBB2202B40F0E0807B690093192301225C
:101A4C007049F86800F092FA0346002B01D002238B
:101A5C00D3E0FB6893F83C30012B01D10223CCE09E
:101A6C00FB68012283F83C20FB681B681B6803F0B1
:101A7C000103012B07D0FB681B681A68FB681B6805
:101A8C0042F001021A60FB681B681A68FB681B684D
:101A9C0022F400621A60FB68212283F83D20FB6867
:101AAC00102283F83E20FB6800221A64FB687A68D7
:101ABC005A62FB683A895A85FB685B8D9AB2FB685F
:101ACC001A85FB68504ADA6279897B693A6AF86848
:101ADC0000F0CAF90346002B01D001238DE000234E
:101AEC003B61FB681B685B693B61FB681B689B691E
:101AFC003B613B6966E07A69396AF86800F050FB33
:101B0C000346002B0DD0FB681B6C042B07D1FB6824
:101B1C001B681A68FB681B6842F400721A60012388
:101B2C006BE0FB685B6A1A78FB681B681A61FB68E0
:101B3C005B6A5A1CFB685A62FB685B8D9BB2013B6B
:101B4C009AB2FB685A85FB681B8D013B9AB2FB6805
:101B5C001A85FB681B685B6903F00403042B1BD11B
:101B6C00FB681B8D002B17D0FB685B6A1A78FB682F
:101B7C001B681A61FB685B6A5A1CFB685A62FB683B
:101B8C005B8D9BB2013B9AB2FB685A85FB681B8D3F
:101B9C00013B9AB2FB681A857A69396AF86800F0D9
:101BAC0047FB0346002B0DD0FB681B6C042B07D1A5
:101BBC00FB681B681A68FB681B6842F400721A60A9
:101BCC0001231AE0FB681B8D002B94D1FB681B686A
:101BDC001A68FB681B6842F400721A60FB682022CA
:101BEC0083F83D20FB68002283F83E20FB6800222E
:101BFC0083F83C20002300E0022318461837BD462A
:101C0C0080BD00BF020010000000FFFF80B58AB04D
:101C1C0002AFF8607A603B600B467B81FFF72AFAD3
:101C2C00F8610023BB61FB6893F83D30DBB2202BDD
:101C3C0040F01181FB690093192301228849F8684F
:101C4C0000F094F90346002B01D0022304E1FB6859
:101C5C0093F83C30012B01D10223FDE0FB680122FB
:101C6C0083F83C20FB681B681B6803F00103012B05
:101C7C0007D0FB681B681A68FB681B6842F00102FE
:101C8C001A60FB681B681A68FB681B6822F4006208
:101C9C001A60FB68242283F83D20FB6800221A643A
:101CAC00FB68704ADA62FB681B681A68FB681B6881
:101CBC0042F480721A60FB6900933B6800224FF07B
:101CCC000111F86800F052F90346002B0DD0FB68A7
:101CDC001B681B6803F48073B3F5807F03D1FB682A
:101CEC004FF400721A640323B6E07B89DBB21A4608
:101CFC00FB681B6802F0FE021A61FFF7BBF9F86182
:101D0C00FB681B685B6903F00203022B0CBF012309
:101D1C000023DBB2FB75FB681B685B6903F4806313
:101D2C00B3F5806F0CBF01230023DBB2BB7525E03C
:101D3C00FFF7A0F90246FB69D31A3A689A4202D31C
:101D4C003B68002B03D1FB68A02283F83D20FB6885
:101D5C001B685B6903F00203022B0CBF01230023F9
:101D6C00DBB2FB75FB681B685B6903F48063B3F53E
:101D7C00806F0CBF01230023DBB2BB75FB6893F8AB
:101D8C003D30DBB2A02B05D0FB7D002B02D1BB7DFF
:101D9C00002BCDD0FB68202283F83D20FB681B680C
:101DAC005B6903F00203022B29D1FB681B681A68DC
:101DBC00FB681B6842F400721A6000233B61FB68ED
:101DCC001B685B693B61FB681B689B693B613B69FA
:101DDC00FB690093192301222149F86800F0C6F829
:101DEC000346002B01D0012336E0FB68202283F848
:101DFC003D20FB68002283F83C2000232CE0FB688C
:101E0C001B681A68FB681B6842F400721A60FB6856
:101E1C001B686FF480625A61FB69009319230122DD
:101E2C000F49F86800F0A2F80346002B01D00123FB
:101E3C0012E0BB690133BB61BA697B689A42FFF45B
:101E4C0032AFFB68202283F83D20FB68002283F828
:101E5C003C20012300E0022318462037BD4680BDFC
:101E6C00020010000000FFFF80B588B002AFF860E0
:101E7C007A603B600B467B81FB68DB6A7B617B692C
:101E8C00082B06D07B69012B03D07B6913F5803FAF
:101E9C0008D1FB681B681A68FB681B6842F48072E7
:101EAC001A600BE0FB681B6B122B07D1FB681B68DD
:101EBC001A68FB681B6842F480721A603B680093D6
:101ECC007B6800224FF00111F86800F04FF80346D0
:101EDC00002B0DD0FB681B681B6803F48073B3F5F3
:101EEC00807F03D1FB684FF400721A64032335E042
:101EFC00FB681B69B3F5804F08D17B89DBB21A46AE
:101F0C00FB681B6802F0FE021A611BE07B89DB1187
:101F1C00DBB203F00603DBB263F00F03DAB2FB684B
:101F2C001B681A613B687A680E49F86800F098F8EB
:101F3C000346002B01D0012310E07B89DAB2FB6849
:101F4C001B681A613B687A680749F86800F088F8E2
:101F5C000346002B01D0012300E00023184618375C
:101F6C00BD4680BD080001000200010080B584B0B0
:101F7C0000AFF860B9603B601346FB7148E03B680A
:101F8C00B3F1FF3F44D0FFF775F80246BB69D31A93
:101F9C003A689A4202D33B68002B39D1BB681B0CC0
:101FAC00DBB2012B0DD1FB681B685B69DA43BB68A4
:101FBC0013409BB2002B0CBF01230023DBB21A464B
:101FCC000CE0FB681B689B69DA43BB6813409BB24F
:101FDC00002B0CBF01230023DBB21A46FB799A427B
:101FEC0016D1FB6800221A63FB68202283F83D207F
:101FFC00FB68002283F83E20FB681B6C43F0200238
:10200C00FB681A64FB68002283F83C20012323E060
:10201C00BB681B0CDBB2012B0DD1FB681B685B6929
:10202C00DA43BB6813409BB2002B0CBF0123002387
:10203C00DBB21A460CE0FB681B689B69DA43BB6891
:10204C0013409BB2002B0CBF01230023DBB21A46BA
:10205C00FB799A4293D0002318461037BD4680BDB9
:10206C0080B584B000AFF860B9607A603B6071E015
:10207C00FB681B685B6903F48063B3F5806F23D145
:10208C00FB681B681A68FB681B6842F400721A60D4
:10209C00FB681B686FF480625A61FB6800221A634C
:1020AC00FB68202283F83D20FB68002283F83E2049
:1020BC00FB681B6C43F00402FB681A64FB6800228B
:1020CC0083F83C20012367E07B68B3F1FF3F41D0EC
:1020DC00FEF7D0FF02463B68D31A7A689A4202D3C5
:1020EC007B68002B36D1BB681B0CDBB2012B0CD1EF
:1020FC00FB681B685B69DA43BB6813409BB2002B1F
:10210C0014BF01230023DBB20BE0FB681B689B6947
:10211C00DA43BB6813409BB2002B14BF012300238E
:10212C00DBB2002B16D0FB6800221A63FB6820225E
:10213C0083F83D20FB68002283F83E20FB681B6C73
:10214C0043F02002FB681A64FB68002283F83C20F1
:10215C00012321E0BB681B0CDBB2012B0CD1FB680B
:10216C001B685B69DA43BB6813409BB2002B14BF3E
:10217C0001230023DBB20BE0FB681B689B69DA438D
:10218C00BB6813409BB2002B14BF01230023DBB2AE
:10219C00002B7FF46DAF002318461037BD4680BD71
:1021AC0080B584B000AFF860B9607A6034E0F8684C
:1021BC0000F086F80346002B01D0012334E0BB6805
:1021CC00B3F1FF3F28D0FEF755FF02467B68D31AC8
:1021DC00BA689A4202D3BB68002B1DD1FB681B68FE
:1021EC005B6903F08003802B16D0FB6800221A6316
:1021FC00FB68202283F83D20FB68002283F83E20F8
:10220C00FB681B6C43F02002FB681A64FB6800221D
:10221C0083F83C20012307E0FB681B685B6903F033
:10222C008003802BC3D1002318461037BD4680BDD8
:10223C0080B584B000AFF860B9607A6034E0F868BB
:10224C0000F03EF80346002B01D0012334E0BB68BC
:10225C00B3F1FF3F28D0FEF70DFF02467B68D31A7F
:10226C00BA689A4202D3BB68002B1DD1FB681B686D
:10227C005B6903F00403042B16D0FB6800221A637D
:10228C00FB68202283F83D20FB68002283F83E2067
:10229C00FB681B6C43F02002FB681A64FB6800228D
:1022AC0083F83C20012307E0FB681B685B6903F0A3
:1022BC000403042BC3D1002318461037BD4680BD40
:1022CC0080B483B000AF78607B681B685B6903F4F3
:1022DC008063B3F5806F1BD17B681B686FF48062E1
:1022EC005A617B6800221A637B68202283F83D20A8
:1022FC007B68002283F83E207B681B6C43F0040251
:10230C007B681A647B68002283F83C20012300E080
:10231C00002318460C37BD4680BC704780B584B08E
:10232C0000AF78607B68002B01D10123E8E07B686B
:10233C0093F89132DBB2002B06D17B68002283F834
:10234C009022786807F092F97B68032283F8912237
:10235C007B6800225A717B681B68184603F091F861
:10236C007B6818687B6804330ECB03F067F8034670
:10237C00002B05D07B68022283F891220123BFE059
:10238C007B681B680021184603F095F80346002B68
:10239C0005D07B68022283F891220123B0E0002350
:1023AC00FB733EE0FA7B796813469B001344DB0019
:1023BC000B44113301221A70FA7B796813469B0087
:1023CC001344DB000B441033FA7B1A70FA7B7968E8
:1023DC0013469B001344DB000B44133300221A708A
:1023EC00FA7B796813469B001344DB000B442033C3
:1023FC0000221A60FA7B796813469B001344DB00B9
:10240C000B44243300221A60FB7B79685A1C134658
:10241C009B001344DB000B4400221A60FB7B01334E
:10242C00FB737B681B79FA7B9A42BBD30023FB734B
:10243C0044E0FA7B796813469B001344DB000B44A1
:10244C0003F2511300221A70FA7B796813469B0031
:10245C001344DB000B4403F5A873FA7B1A70FA7B68
:10246C00796813469B001344DB000B4403F25313AF
:10247C0000221A70FA7B796813469B001344DB0028
:10248C000B4403F5B07300221A60FA7B796813468B
:10249C009B001344DB000B4403F5B27300221A605B
:1024AC00FA7B796813469B001344DB000B4403F55D
:1024BC00B47300221A60FB7B0133FB737B681B79BE
:1024CC00FA7B9A42B5D37B6818687B6804330ECBD1
:1024DC0002F0FDFF0346002B05D07B68022283F837
:1024EC00912201230CE07B6800225A737B68012245
:1024FC0083F891227B681B68184605F07CFA002350
:10250C0018461037BD4680BD80B582B000AF7860EC
:10251C007B6893F89032012B01D1022316E07B6883
:10252C00012283F890227B681B68184602F093FF07
:10253C000121786807F015FB7B681B68184605F0CD
:10254C0050FA7B68002283F8902200231846083743
:10255C00BD4680BD80B588B000AF78607B681B68D5
:10256C00184605F052FAB861BB6903F40043002B1E
:10257C0003D0786800F01AFB19E1BB6903F480639F
:10258C00002B13D07B681B68B3F844309AB27B687D
:10259C001B6822F4806292B2A3F84420786807F09A
:1025AC00E8F80021786800F005F900E1BB6903F454
:1025BC008043002B0CD07B681B68B3F844309AB274
:1025CC007B681B6822F4804292B2A3F84420EEE0B0
:1025DC00BB6903F40053002B0CD07B681B68B3F869
:1025EC0044309AB27B681B6822F4005292B2A3F872
:1025FC004420DCE0BB6903F48053002B27D07B68BC
:10260C001B68B3F840309AB27B681B6822F0040256
:10261C0092B2A3F840207B681B68B3F840309AB2A2
:10262C007B681B6822F0080292B2A3F840207868FD
:10263C0007F0D8F87B681B68B3F844309AB27B6813
:10264C001B6822F4805292B2A3F84420AFE0BB691D
:10265C0003F40063002B00F083800023FB7710E071
:10266C007B681B681A46FB7F9B001A44FB7F128811
:10267C0092B25B0020333B4423F8182CFB7F0133D0
:10268C00FB77FB7F072BEBD97B681B68B3F84030DB
:10269C009AB27B681B6842F0010292B2A3F8402008
:1026AC007B681B68B3F840309AB27B681B6822F0D9
:1026BC00010292B2A3F8402000BF7B681B68B3F8FC
:1026CC0044309BB203F48063002BF6D07B681B680C
:1026DC00B3F844309AB27B681B6822F4806292B2E1
:1026EC00A3F844200023FB770FE0FB7F7A68126885
:1026FC001146FA7F92000A445B0020333B4433F8C6
:10270C00183C1380FB7F0133FB77FB7F072BECD945
:10271C007B681B68B3F840309AB27B681B6842F048
:10272C00080292B2A3F840207B681B68B3F84430CF
:10273C009AB27B681B6822F4006292B2A3F8442020
:10274C007B681B68B3F840309AB27B681B6842F018
:10275C00040292B2A3F84020786807F029F826E02A
:10276C00BB6903F40073002B0FD07B681B68B3F8B4
:10277C0044309AB27B681B6822F4007292B2A3F8C0
:10278C004420786806F0E7FF11E0BB6903F480731E
:10279C00002B0CD07B681B68B3F844309AB27B6872
:1027AC001B6822F4807292B2A3F8442000BF203739
:1027BC00BD4680BD80B582B000AF78600B46FB7023
:1027CC007B6893F89032012B01D1022312E07B68D5
:1027DC00012283F890227B68FA785A737B681B6815
:1027EC00FA781146184605F0E9F87B68002283F860
:1027FC009022002318460837BD4680BD80B584B0B2
:10280C0000AF7860084611461A460346FB700B462B
:10281C003B801346BB700023FB7297F90330002BEF
:10282C000EDAFB7803F0070213469B001344DB001F
:10283C0010337A681344FB60FB6801225A700EE077
:10284C00FB7803F0070213469B001344DB0003F5EF
:10285C00A8737A681344FB60FB6800225A70FB78FB
:10286C0003F00703DAB2FB681A703A88FB681A6146
:10287C00FB68BA78DA70BB78022B02D1FB680022B5
:10288C001A717B6893F89032012B01D102230EE070
:10289C007B68012283F890227B681B68F9681846D4
:1028AC0002F032FE7B68002283F89022FB7A1846F5
:1028BC001037BD4680BD80B584B000AF78600B4644
:1028CC00FB7097F90330002B0EDAFB7803F007024C
:1028DC0013469B001344DB0010337A681344FB60EF
:1028EC00FB6801225A700EE0FB7803F007021346D6
:1028FC009B001344DB0003F5A8737A681344FB6058
:10290C00FB6800225A70FB7803F00703DAB2FB680D
:10291C001A707B6893F89032012B01D102230EE0E0
:10292C007B68012283F890227B681B68F968184643
:10293C0003F0AAF97B68002283F890220023184642
:10294C001037BD4680BD80B586B000AFF8607A60A8
:10295C003B600B46FB72FB7A03F0070213469B00AD
:10296C001344DB0003F5A873FA6813447B617B699D
:10297C007A685A617B693A689A617B690022DA61EC
:10298C007B6900225A70FB7A03F00703DAB27B6989
:10299C001A70FB681B687969184603F061FB002309
:1029AC0018461837BD4680BD80B483B000AF786040
:1029BC000B46FB70FB7803F00702796813469B000B
:1029CC001344DB000B4403F5B6731B6818460C3735
:1029DC00BD4680BC704780B586B000AFF8607A60A9
:1029EC003B600B46FB72FB7A03F0070213469B001D
:1029FC001344DB001033FA6813447B617B697A68FB
:102A0C005A617B693A689A617B69012283F82420B8
:102A1C007B693A681A627B690022DA617B69012260
:102A2C005A70FB7A03F00703DAB27B691A70FB6801
:102A3C001B687969184603F013FB002318461837F6
:102A4C00BD4680BD80B584B000AF78600B46FB708E
:102A5C00FB7803F007037A681279934201D90123BA
:102A6C004CE097F90330002B0EDAFB7803F00702E9
:102A7C0013469B001344DB0010337A681344FB604D
:102A8C00FB6801225A700CE0FA7813469B00134441
:102A9C00DB0003F5A8737A681344FB60FB68002223
:102AAC005A70FB6801229A70FB7803F00703DAB2C4
:102ABC00FB681A707B6893F89032012B01D10223CA
:102ACC001CE07B68012283F890227B681B68F96804
:102ADC00184604F076FEFB7803F00703002B08D1B0
:102AEC007B681A687B6803F526731946104604F058
:102AFC009BFF7B68002283F8902200231846103736
:102B0C00BD4680BD80B584B000AF78600B46FB70CD
:102B1C00FB7803F00F037A681279934201D90123F1
:102B2C0040E097F90330002B0EDAFB7803F0070234
:102B3C0013469B001344DB0010337A681344FB608C
:102B4C00FB6801225A700EE0FB7803F00702134673
:102B5C009B001344DB0003F5A8737A681344FB60F5
:102B6C00FB6800225A70FB6800229A70FB7803F015
:102B7C000703DAB2FB681A707B6893F89032012B6A
:102B8C0001D102230EE07B68012283F890227B683E
:102B9C001B68F968184604F064FE7B68002283F811
:102BAC009022002318461037BD4680BD80B596B0E4
:102BBC0000AF7860BBE37B681B68B3F84430A7F8C0
:102BCC004E30B7F84E30DBB203F00F0387F84D30C0
:102BDC0097F84D30002B40F07581B7F84E3003F06C
:102BEC001003002B4ED17B681B681B889BB223F40F
:102BFC00E14323F07003FB817B681A68FB896FEA61
:102C0C0043436FEA53439BB213807B6810337B655D
:102C1C007B681B68B3F850309BB21A467B6D1B78EF
:102C2C00DB00134402335B007A681268134403F52B
:102C3C0080631B88C3F309027B6DDA617B6D5A6973
:102C4C007B6DDB691A447B6D5A610021786806F054
:102C5C0068FD7B685B7BDBB2002B00F068837B6DCF
:102C6C009B69002B40F063837B685B7BDBB263F07A
:102C7C007F03DAB27B681B68A3F84C207B680022C8
:102C8C005A7354E37B6803F5A8737B657B681B68F8
:102C9C001B88A7F84A30B7F84A3003F40063002BBE
:102CAC0034D07B681B68B3F850309BB21A467B6DEE
:102CBC001B78DB00134406335B007A6812681344FC
:102CCC0003F580631B88C3F309027B6DDA617B68B3
:102CDC0018687B6803F526717B6DDA887B6DDB6980
:102CEC009BB204F0F2FE7B681B681B889AB240F61C
:102CFC008F7313403B827B681B683A8A42F08002D8
:102D0C0092B21A80786806F0DFFC10E3B7F94A300B
:102D1C00002B80F20C837B681B681B889AB240F6F0
:102D2C008F731340FB837B681B68FA8B42F0800225
:102D3C0092B21A807B681B68B3F850309BB21A466B
:102D4C007B6D1B78DB00134406335B007A681268DA
:102D5C00134403F580631B88C3F309027B6DDA61AE
:102D6C007B6DDB69002B19D07B6D5B69002B15D05B
:102D7C007B6818687B6D59697B6DDA887B6DDB69C4
:102D8C009BB204F0A2FE7B6D5A697B6DDB691A4421
:102D9C007B6D5A610021786806F0A8FC7B681B6883
:102DAC001B88A7F84A30B7F84A3003F40063002BAD
:102DBC0040F0BD82B7F84A3003F44053B3F5405F9E
:102DCC0000F0B5827B681B68BB617B681B68B3F83D
:102DDC0050309BB21A46BB691344BB61BB6903F20A
:102DEC000C437B617B691B889BB2C3F309039AB2CA
:102DFC007B691A807B6D1B693E2B1DD97B6D1B6912
:102E0C005B097B647B6D1B6903F01F03002B02D1F4
:102E1C007B6C013B7B647B691B889AB27B6C9BB29D
:102E2C009B029BB213439BB26FEA43436FEA53433B
:102E3C009AB27B691A8026E07B6D1B69002B0AD144
:102E4C007B691B889BB26FEA43436FEA53439AB288
:102E5C007B691A8017E07B6D1B695B087B647B6D5B
:102E6C001B6903F00103002B02D07B6C01337B64E4
:102E7C007B691B889AB27B6C9BB29B029BB21343FF
:102E8C009AB27B691A807B681B681B889BB223F4FF
:102E9C00804323F070037B827B8A83F480537B8294
:102EAC007B8A83F400537B827B681A687B8A43F0AD
:102EBC007F4343F47F0343F4004343F080039BB20E
:102ECC00138034E27B681B681A4697F84D309B00E0
:102EDC0013441B88A7F84A30B7F94A30002B80F20C
:102EEC00FC807B681B681A4697F84D309B00134496
:102EFC001B889AB240F68F731340A7F848307B6852
:102F0C001B681A4697F84D309B001344B7F84820BD
:102F1C0042F0800292B21A8097F84D2013469B0023
:102F2C001344DB0003F5A8737A6813447B657B6D4F
:102F3C001B7B002B25D17B681B68B3F850309BB2F0
:102F4C001A467B6D1B78DB00134406335B007A68F2
:102F5C001268134403F580631B88C3F30903A7F8B5
:102F6C005030B7F85030002B00F092807B68186816
:102F7C007B6D59697B6DDA88B7F8503004F0A5FD8C
:102F8C0086E07B6DDB78022B0AD1B7F84A301A4603
:102F9C00796D786800F0D9F90346A7F8503077E0DE
:102FAC007B681B681A467B6D1B789B0013441B883F
:102FBC009BB223F4E04323F07003A7F852307B68F4
:102FCC001B681A467B6D1B789B001A44B7F852306D
:102FDC0043F07F4343F47F0343F4004343F0C003C7
:102FEC009BB213807B681B681A467B6D1B789B0019
:102FFC0013441B889BB203F48043002B24D07B68C2
:10300C001B68B3F850309BB21A467B6D1B78DB0003
:10301C00134402335B007A681268134403F580632F
:10302C001B88C3F30903A7F85030B7F85030002BB6
:10303C002ED07B6818687B6D59697B6D1A89B7F83F
:10304C00503004F042FD23E07B681B68B3F850302D
:10305C009BB21A467B6D1B78DB00134406335B0076
:10306C007A681268134403F580631B88C3F3090361
:10307C00A7F85030B7F85030002B09D07B6818688F
:10308C007B6D59697B6D5A89B7F8503004F01DFD82
:10309C007B6DDA69B7F850301A447B6DDA617B6D61
:1030AC005A69B7F850301A447B6D5A617B6D9B6935
:1030BC00002B05D0B7F850207B6D1B699A4206D2C5
:1030CC007B6D1B781946786806F010FB05E07B6871
:1030DC001B68796D184602F0C3FFB7F84A3003F04D
:1030EC008003002B00F0238197F84D2013469B00A2
:1030FC001344DB0010337A6813447B657B681B68D0
:10310C001A4697F84D309B0013441B889BB223F44E
:10311C00E14323F07003A7F842307B681B681A4622
:10312C0097F84D309B001A44B7F842306FEA43438E
:10313C006FEA53439BB213807B6DDB78012B40F01D
:10314C00A2807B6D00229A617B6D1B7B002B00F0B3
:10315C009380B7F84A3003F04003002B46D07B6DC8
:10316C005B78002B26D17B681B687B627B681B68B5
:10317C00B3F850309BB21A467B6A13447B627B6D6A
:10318C001B781A017B6A134403F204433B623B6ACB
:10319C001B889BB2C3F309039AB23B6A1A803B6A41
:1031AC001B889BB26FEA43436FEA53439AB23B6A64
:1031BC001A8061E07B6D5B78012B5DD17B681B68AD
:1031CC00FB627B681B68B3F850309BB21A46FB6AF3
:1031DC001344FB627B6D1B781A01FB6A134403F2E8
:1031EC000443BB62BB6A00221A8045E07B681B6803
:1031FC00FB637B6D5B78002B26D17B681B687B6344
:10320C007B681B68B3F850309BB21A467B6B134437
:10321C007B637B6D1B781A017B6B134403F20C43AD
:10322C003B633B6B1B889BB2C3F309039AB23B6BAA
:10323C001A803B6B1B889BB26FEA43436FEA534384
:10324C009AB23B6B1A8017E07B6D5B78012B13D124
:10325C007B681B68B3F850309BB21A46FB6B134467
:10326C00FB637B6D1B781A01FB6B134403F20C435D
:10327C00BB63BB6B00221A807B6D1B781946786888
:10328C0006F04FFA53E0B7F84A3003F48073002B82
:10329C0046D17B681B68B3F850309BB21A467B6DE5
:1032AC001B78DB00134402335B007A68126813440A
:1032BC0003F580631B88C3F30903A7F840307B6DCB
:1032CC009A69B7F840309A4207D97B6D9A69B7F87A
:1032DC004030D21A7B6D9A6102E07B6D00229A61BC
:1032EC007B6D9B69002B06D17B6D1B78194678682A
:1032FC0006F017FA1BE07B6D5A69B7F840301A4498
:10330C007B6D5A617B6DDA69B7F840301A447B6D7E
:10331C00DA617B681B68796D184602F0A1FE06E045
:10332C00B7F84A301A46796D786800F01BF97B685B
:10333C001B68B3F844309BB21BB2002BFFF63BACBE
:10334C00002318465837BD4680BD80B588B000AF05
:10335C00F860B9601346FB80FB8803F48043002BB4
:10336C007ED0FB681B68B3F850309BB21A46BB6822
:10337C001B78DB00134402335B00FA6812681344B9
:10338C0003F580631B88C3F309037B83BB689A69CD
:10339C007B8B9A4206D3BB689A697B8BD21ABB682B
:1033AC009A6102E0BB6800229A61BB689B69002BA2
:1033BC0023D1FB681B681A46BB681B789B0013441F
:1033CC001B889BB223F4804323F070033B833B8B1D
:1033DC0083F400533B83FB681B681A46BB681B785D
:1033EC009B001A443B8B43F07F4343F47F0343F42D
:1033FC00004343F080039BB21380FB8803F040032F
:10340C00002B1FD0FB681B681A46BB681B789B00FF
:10341C0013441B889BB223F4E04323F07003FB821C
:10342C00FB681B681A46BB681B789B001A44FB8A16
:10343C0043F07F4343F47F0343F4004343F0C00362
:10344C009BB213807B8B002B00F08780FB68186885
:10345C00BB685969BB681A897B8B04F036FB7CE02E
:10346C00FB681B68B3F850309BB21A46BB681B78DC
:10347C00DB00134406335B00FA681268134403F54F
:10348C0080631B88C3F309037B83BB689A697B8BBE
:10349C009A4206D3BB689A697B8BD21ABB689A6135
:1034AC0002E0BB6800229A61BB689B69002B23D1A8
:1034BC00FB681B681A46BB681B789B0013441B886F
:1034CC009BB223F4804323F07003FB83FB8B83F4C8
:1034DC000053FB83FB681B681A46BB681B789B0078
:1034EC001A44FB8B43F07F4343F47F0343F40043C4
:1034FC0043F080039BB21380FB8803F04003002B46
:10350C001FD1FB681B681A46BB681B789B001344D1
:10351C001B889BB223F4E04323F07003BB83FB684E
:10352C001B681A46BB681B789B001A44BB8B43F084
:10353C007F4343F47F0343F4004343F0C0039BB247
:10354C0013807B8B002B08D0FB681868BB6859690B
:10355C00BB685A897B8B04F0B8FA7B8B18462037F2
:10356C00BD4680BD80B5A4B000AFF860B96013460D
:10357C00FB80FB8803F04003002B00F0DD81FB682F
:10358C001B68B3F850309BB21A46BB681B78DB0043
:10359C00134402335B00FA681268134403F580632A
:1035AC001B88C3F30903A7F88630BB689A69B7F880
:1035BC0086309A4207D9BB689A69B7F88630D21A16
:1035CC00BB689A6102E0BB6800229A61BB689B6988
:1035DC00002B40F0B980BB685B78002B26D1FB68D0
:1035EC001B68FB62FB681B68B3F850309BB21A4631
:1035FC00FB6A1344FB62BB681B781A01FB6A134419
:10360C0003F20443BB62BB6A1B889BB2C3F309037E
:10361C009AB2BB6A1A80BB6A1B889BB26FEA43439F
:10362C006FEA53439AB2BB6A1A801AE0BB685B78A4
:10363C00012B16D1FB681B687B63FB681B68B3F816
:10364C0050309BB21A467B6B13447B63BB681B7870
:10365C001A017B6B134403F204433B633B6B002264
:10366C001A80FB681B687B62BB685B78002B26D1D9
:10367C00FB681B68FB61FB681B68B3F850309BB29E
:10368C001A46FB691344FB61BB681B781A01FB6982
:10369C00134403F20C43BB61BB691B889BB2C3F39D
:1036AC0009039AB2BB691A80BB691B889BB26FEA8B
:1036BC0043436FEA53439AB2BB691A8017E0BB6865
:1036CC005B78012B13D1FB681B68B3F850309BB2AD
:1036DC001A467B6A13447B62BB681B781A017B6AAF
:1036EC00134403F20C433B623B6A00221A80BB6812
:1036FC001B781946F86806F014F8FB8803F480432D
:10370C00002B00F0FC82FB681B681A46BB681B7818
:10371C009B0013441B889BB223F4E04323F07003FB
:10372C00FB82FB681B681A46BB681B789B001A441B
:10373C00FB8A43F07F4343F47F0343F4404343F05D
:10374C0080039BB21380DAE2FB8803F48043002BE6
:10375C0021D0FB681B681A46BB681B789B0013447E
:10376C001B889BB223F4E04323F07003A7F88A3044
:10377C00FB681B681A46BB681B789B001A44B7F899
:10378C008A3043F07F4343F47F0343F4404343F0D8
:10379C0080039BB21380BB6893F82430012B40F05C
:1037AC00AE82BB685A69B7F886301A44BB685A6156
:1037BC00BB68DA69B7F886301A44BB68DA61BB6853
:1037CC001A6ABB681B699A420BD3BB681B69C7F8A2
:1037DC008C30BB681A6AD7F88C30D21ABB681A6264
:1037EC0017E0BB681B6A002B08D1B7F88630C7F806
:1037FC008C30BB68002283F824200AE0BB680022CE
:10380C0083F82420BB681B6AC7F88C30BB68002285
:10381C001A62BB685B78002B65D1FB681B68FB6385
:10382C00FB681B68B3F850309BB21A46FB6B134411
:10383C00FB63BB681B781A01FB6B134403F2044354
:10384C00BB63BB6B1B889BB2C3F309039AB2BB6B04
:10385C001A80D7F88C303E2B1DD9D7F88C305B09E9
:10386C00BB64D7F88C3003F01F03002B02D1BB6C68
:10387C00013BBB64BB6B1B889AB2BB6C9BB29B02BB
:10388C009BB213439BB26FEA43436FEA53439AB222
:10389C00BB6B1A8044E0D7F88C30002B0AD1BB6B81
:1038AC001B889BB26FEA43436FEA53439AB2BB6BDC
:1038BC001A8035E0D7F88C305B08BB64D7F88C30B5
:1038CC0003F00103002B02D0BB6C0133BB64BB6B58
:1038DC001B889AB2BB6C9BB29B029BB213439AB2ED
:1038EC00BB6B1A801CE0BB685B78012B18D1FB68A2
:1038FC001B687B64FB681B68B3F850309BB21A469C
:10390C007B6C13447B64BB681B781A017B6C13447F
:10391C0003F204433B64D7F88C309AB23B6C1A80A8
:10392C00FB681868BB685969BB681A89D7F88C3072
:10393C009BB204F084F8E2E1FB681B68B3F85030EA
:10394C009BB21A46BB681B78DB00134406335B0042
:10395C00FA681268134403F580631B88C3F30903E8
:10396C00A7F88630BB689A69B7F886309A4207D3B5
:10397C00BB689A69B7F88630D21ABB689A6102E0C4
:10398C00BB6800229A61BB689B69002B40F0C08029
:10399C00BB685B78002B26D1FB681B68FB67FB6858
:1039AC001B68B3F850309BB21A46FB6F1344FB678D
:1039BC00BB681B781A01FB6F134403F20443BB670B
:1039CC00BB6F1B889BB2C3F309039AB2BB6F1A80FF
:1039DC00BB6F1B889BB26FEA43436FEA53439AB2A7
:1039EC00BB6F1A801AE0BB685B78012B16D1FB68A1
:1039FC001B687B66FB681B68B3F850309BB21A4699
:103A0C007B6E13447B66BB681B781A017B6E134478
:103A1C0003F204433B663B6E00221A80FB681B6872
:103A2C007B67BB685B78002B2BD1FB681B68FB6644
:103A3C00FB681B68B3F850309BB21A46FB6E1344FC
:103A4C00FB66BB681B781A01FB6E134403F20C4334
:103A5C00C7F88030D7F880301B889BB2C3F30903BA
:103A6C009AB2D7F880301A80D7F880301B889BB276
:103A7C006FEA43436FEA53439AB2D7F880301A8007
:103A8C0017E0BB685B78012B13D1FB681B68B3F89C
:103A9C0050309BB21A467B6F13447B67BB681B7814
:103AAC001A017B6F134403F20C433B673B6F0022FC
:103ABC001A80BB681B781946F86805F032FEFB8843
:103ACC0003F48043002B40F01A81FB681B681A46F4
:103ADC00BB681B789B0013441B889BB223F4E04308
:103AEC0023F07003A7F88830FB681B681A46BB6884
:103AFC001B789B001A44B7F8883043F07F4343F49B
:103B0C007F0343F4404343F080039BB21380F6E001
:103B1C00FB8803F48043002B21D1FB681B681A46F9
:103B2C00BB681B789B0013441B889BB223F4E043B7
:103B3C0023F07003A7F84E30FB681B681A46BB686D
:103B4C001B789B001A44B7F84E3043F07F4343F484
:103B5C007F0343F4404343F080039BB21380BB6864
:103B6C0093F82430012B40F0CA80BB685A69B7F82F
:103B7C0086301A44BB685A61BB68DA69B7F886307C
:103B8C001A44BB68DA61BB681A6ABB681B699A4243
:103B9C000BD3BB681B69C7F88C30BB681A6AD7F8A3
:103BAC008C30D21ABB681A6217E0BB681B6A002BF8
:103BBC0008D1B7F88630C7F88C30BB68002283F880
:103BCC0024200AE0BB681B6AC7F88C30BB68002253
:103BDC001A62BB68002283F82420FB681B687B6593
:103BEC00BB685B78002B65D1FB681B68FB65FB68C9
:103BFC001B68B3F850309BB21A46FB6D1344FB653F
:103C0C00BB681B781A01FB6D134403F20C43BB65B4
:103C1C00BB6D1B889BB2C3F309039AB2BB6D1A80B0
:103C2C00D7F88C303E2B1DD9D7F88C305B09BB668E
:103C3C00D7F88C3003F01F03002B02D1BB6E013B75
:103C4C00BB66BB6D1B889AB2BB6E9BB29B029BB2D0
:103C5C0013439BB26FEA43436FEA53439AB2BB6D73
:103C6C001A8041E0D7F88C30002B0AD1BB6D1B8831
:103C7C009BB26FEA43436FEA53439AB2BB6D1A800F
:103C8C0032E0D7F88C305B08BB66D7F88C3003F089
:103C9C000103002B02D0BB6E0133BB66BB6D1B88CE
:103CAC009AB2BB6E9BB29B029BB213439AB2BB6D92
:103CBC001A8019E0BB685B78012B15D1FB681B6877
:103CCC00B3F850309BB21A467B6D13447B65BB68CE
:103CDC001B781A017B6D134403F20C433B65D7F838
:103CEC008C309AB23B6D1A80FB681868BB685969B6
:103CFC00BB685A89D7F88C309BB203F0A0FEFB68E6
:103D0C001B681A46BB681B789B0013441B889BB22C
:103D1C0023F4E04323F04003BB82BB8A83F01003FF
:103D2C00BB82BB8A83F02003BB82FB681B681A46EC
:103D3C00BB681B789B001A44BB8A43F07F4343F457
:103D4C007F0343F4004343F080039BB213800023B2
:103D5C0018469037BD4680BD80B487B000AFF86080
:103D6C007B600B467B8113463B817B8903F0800390
:103D7C009BB2002B0BD07B8903F0070213469B00F0
:103D8C001344DB001033FA6813447B6109E07A8931
:103D9C0013469B001344DB0003F5A873FA68134425
:103DAC007B613B89002B07D17B6900221A737B68EE
:103DBC009AB27B69DA800BE07B6901221A737B680B
:103DCC009AB27B691A817B681B0C9AB27B695A8107
:103DDC00002318461C37BD4680BC704780B586B0A2
:103DEC0000AF78607B68002B01D1012372E27B6805
:103DFC001B6803F00103002B00F08780924B5B687B
:103E0C0003F00C03042B0CD08F4B5B6803F00C03FA
:103E1C00082B12D18C4B5B6803F48033B3F5803FD5
:103E2C000BD1894B1B6803F40033002B6CD07B68DF
:103E3C005B68002B68D101234CE27B685B68B3F5AF
:103E4C00803F06D1804B1B687F4A43F4803313605C
:103E5C002EE07B685B68002B0CD17B4B1B687A4A8D
:103E6C0023F480331360784B1B68774A23F4802348
:103E7C0013601DE07B685B68B3F5A02F0CD1724B0F
:103E8C001B68714A43F4802313606F4B1B686E4AA6
:103E9C0043F4803313600BE06B4B1B686A4A23F4CA
:103EAC0080331360684B1B68674A23F480231360CC
:103EBC007B685B68002B13D0FDF7DCF8386108E0F9
:103ECC00FDF7D8F802463B69D31A642B01D90323BA
:103EDC0000E25D4B1B6803F40033002BF0D014E0C0
:103EEC00FDF7C8F8386108E0FDF7C4F802463B69F5
:103EFC00D31A642B01D90323ECE1534B1B6803F455
:103F0C000033002BF0D100E000BF7B681B6803F08E
:103F1C000203002B63D04C4B5B6803F00C03002BAB
:103F2C000BD0494B5B6803F00C03082B1CD1464BA0
:103F3C005B6803F48033002B16D1434B1B6803F0F2
:103F4C000203002B05D07B681B69012B01D00123D8
:103F5C00C0E13D4B1B6823F0F8027B685B69DB001A
:103F6C00394913430B603AE07B681B69002B20D066
:103F7C00364B01221A60FDF77DF8386108E0FDF739
:103F8C0079F802463B69D31A022B01D90323A1E12C
:103F9C002D4B1B6803F00203002BF0D02A4B1B683F
:103FAC0023F0F8027B685B69DB00274913430B6045
:103FBC0015E0264B00221A60FDF75CF8386108E02A
:103FCC00FDF758F802463B69D31A022B01D903239B
:103FDC0080E11D4B1B6803F00203002BF0D17B68C2
:103FEC001B6803F00803002B3AD07B689B69002BFD
:103FFC0019D0174B01221A60FDF73CF8386108E024
:10400C00FDF738F802463B69D31A022B01D903237A
:10401C0060E10D4B5B6A03F00203002BF0D0012032
:10402C0000F0CEFA1CE00A4B00221A60FDF722F8D1
:10403C0038610FE0FDF71EF802463B69D31A022BDC
:10404C0008D9032346E100BF0010024000004242A1
:10405C0080044242924B5B6A03F00203002BE9D1CD
:10406C007B681B6803F00403002B00F0A680002380
:10407C00FB758B4BDB6903F08053002B0DD1884B08
:10408C00DB69874A43F08053D361854BDB6903F0CE
:10409C008053BB60BB680123FB75824B1B6803F428
:1040AC008073002B18D17F4B1B687E4A43F48073BE
:1040BC001360FCF7DFFF386108E0FCF7DBFF02461A
:1040CC003B69D31A642B01D9032303E1754B1B689D
:1040DC0003F48073002BF0D07B68DB68012B06D1D6
:1040EC006F4B1B6A6E4A43F0010313622DE07B6831
:1040FC00DB68002B0CD16A4B1B6A694A23F0010365
:10410C001362674B1B6A664A23F0040313621CE0BC
:10411C007B68DB68052B0CD1614B1B6A604A43F052
:10412C00040313625E4B1B6A5D4A43F00103136286
:10413C000BE05B4B1B6A5A4A23F001031362584B8A
:10414C001B6A574A23F0040313627B68DB68002B5D
:10415C0015D0FCF78FFF38610AE0FCF78BFF0246A5
:10416C003B69D31A41F28832934201D90323B1E05F
:10417C004B4B1B6A03F00203002BEED014E0FCF750
:10418C0079FF38610AE0FCF775FF02463B69D31AE8
:10419C0041F28832934201D903239BE0404B1B6AC6
:1041AC0003F00203002BEED1FB7D012B05D13C4B20
:1041BC00DB693B4A23F08053D3617B68DB69002BBE
:1041CC0000F08780364B5B6803F00C03082B61D042
:1041DC007B68DB69022B46D1334B00221A60FCF75B
:1041EC0049FF386108E0FCF745FF02463B69D31AEA
:1041FC00022B01D903236DE0294B1B6803F00073DC
:10420C00002BF0D17B681B6AB3F5803F08D1244B9F
:10421C005B6823F400327B689B68214913434B6035
:10422C001F4B5B6823F474127B68196A7B685B6AAA
:10423C000B431B4913434B601B4B01221A60FCF7C9
:10424C0019FF386108E0FCF715FF02463B69D31AE9
:10425C00022B01D903233DE0114B1B6803F00073C3
:10426C00002BF0D035E0104B00221A60FCF702FF57
:10427C00386108E0FCF7FEFE02463B69D31A022BBC
:10428C0001D9032326E0064B1B6803F00073002BB7
:10429C00F0D11EE07B68DB69012B07D1012319E00B
:1042AC000010024000700040600042420B4B5B6803
:1042BC00FB60FB6803F480327B681B6A9A4206D170
:1042CC00FB6803F470127B685B6A9A4201D001238D
:1042DC0000E0002318461837BD4680BD0010024090
:1042EC0080B584B000AF786039607B68002B01D159
:1042FC000123D0E06A4B1B6803F007033A689A422B
:10430C0010D9674B1B6823F0070265493B681343C0
:10431C000B60634B1B6803F007033A689A4201D0A9
:10432C000123B8E07B681B6803F00203002B20D04C
:10433C007B681B6803F00403002B05D0594B5B68AA
:10434C00584A43F4E06353607B681B6803F008032E
:10435C00002B05D0534B5B68524A43F460535360B7
:10436C00504B5B6823F0F0027B689B684D4913430C
:10437C004B607B681B6803F00103002B40D07B680B
:10438C005B68012B07D1474B1B6803F40033002BF0
:10439C0015D101237FE07B685B68022B07D1414B71
:1043AC001B6803F00073002B09D1012373E03D4B14
:1043BC001B6803F00203002B01D101236BE0394B86
:1043CC005B6823F003027B685B68364913434B60E0
:1043DC00FCF750FEF8600AE0FCF74CFE0246FB6866
:1043EC00D31A41F28832934201D9032353E02D4B67
:1043FC005B6803F00C027B685B689B009A42EBD114
:10440C00274B1B6803F007033A689A4210D2244BDF
:10441C001B6823F0070222493B6813430B60204BB7
:10442C001B6803F007033A689A4201D0012332E07B
:10443C007B681B6803F00403002B08D0194B5B68E6
:10444C0023F4E0627B68DB68164913434B607B689E
:10445C001B6803F00803002B09D0124B5B6823F494
:10446C0060527B681B69DB000E4913434B6000F004
:10447C0021F802460B4B5B681B0903F00F030A493A
:10448C00CB5C22FA03F3094A1360094B1B681846EC
:10449C00FCF7AEFD002318461037BD4680BD00BFAB
:1044AC0000200240001002407CA400088C00002078
:1044BC009000002080B487B000AF0023FB60002385
:1044CC00BB6000237B6100237B6000233B611E4BA0
:1044DC005B68FB60FB6803F00C03042B02D0082B19
:1044EC0003D027E0194B3B6127E0FB689B0C03F0E2
:1044FC000F03174AD35C7B60FB6803F48033002BFB
:10450C0010D0114B5B685B0C03F00103114AD35CB8
:10451C00BB607B680D4A03FB02F2BB68B2FBF3F392
:10452C007B6104E07B680C4A02FB03F37B617B69D3
:10453C003B6102E0054B3B6100BF3B6918461C37F1
:10454C00BD4680BC704700BF0010024000127A00CC
:10455C0094A40008A4A4000800093D0080B400AF96
:10456C00024B1B681846BD4680BC70478C0000206F
:10457C0080B500AFFFF7F2FF0246054B5B681B0AE4
:10458C0003F007030349CB5C22FA03F3184680BD02
:10459C00001002408CA4000880B500AFFFF7DEFFCE
:1045AC000246054B5B68DB0A03F007030349CB5C4F
:1045BC0022FA03F3184680BD001002408CA40008B8
:1045CC0080B485B000AF78600A4B1B680A4AA2FB26
:1045DC0003235B0A7A6802FB03F3FB6000BFFB68F2
:1045EC005A1EFA60002BF9D100BF00BF1437BD462C
:1045FC0080BC70478C000020D34D621080B586B013
:10460C0000AF786000233B610023FB607B681B6874
:10461C0003F00103002B7DD00023FB754F4BDB69AE
:10462C0003F08053002B0DD14C4BDB694B4A43F00C
:10463C008053D361494BDB6903F08053BB60BB688B
:10464C000123FB75464B1B6803F48073002B18D1B8
:10465C00434B1B68424A43F480731360FCF70AFD1A
:10466C00386108E0FCF706FD02463B69D31A642B5F
:10467C0001D903236DE03A4B1B6803F48073002BC4
:10468C00F0D0364B1B6A03F44073FB60FB68002BC5
:10469C002ED07B685B6803F44073FA689A4227D08B
:1046AC002E4B1B6A23F44073FB602E4B01221A60C5
:1046BC002C4B00221A60294AFB681362FB6803F03A
:1046CC000103002B14D0FCF7D5FC38610AE0FCF791
:1046DC00D1FC02463B69D31A41F28832934201D98C
:1046EC00032336E01D4B1B6A03F00203002BEED0B4
:1046FC001A4B1B6A23F440727B685B68174913439F
:10470C000B62FB7D012B05D1144BDB69134A23F0A3
:10471C008053D3617B681B6803F00203002B08D025
:10472C000E4B5B6823F440427B689B680B49134338
:10473C004B607B681B6803F01003002B08D0074B01
:10474C005B6823F480027B68DB68044913434B608D
:10475C00002318461837BD4680BD00BF001002402C
:10476C00007000404004424280B582B000AF7860D7
:10477C007B68002B01D1012342E07B6893F8413028
:10478C00DBB2002B06D17B68002283F840207868CE
:10479C00FCF7A0FB7B68242283F841207B681B6814
:1047AC00DA687B681B6822F40052DA60786800F0E3
:1047BC00B7FD7B681B681A697B681B6822F4904202
:1047CC001A617B681B685A697B681B6822F02A0295
:1047DC005A617B681B68DA687B681B6842F400527C
:1047EC00DA607B6800225A647B68202283F84120BF
:1047FC007B68202283F842207B6800225A630023C6
:10480C0018460837BD4680BD80B58AB002AFF86047
:10481C00B9603B601346FB8000237B61FB6893F817
:10482C004130DBB2202B75D1BB68002B02D0FB884A
:10483C00002B01D101236EE0FB6800225A64FB6857
:10484C00212283F84120FCF715FC7861FB68FA887B
:10485C009A84FB68FA88DA84FB689B68B3F5805FFE
:10486C0008D1FB681B69002B04D10023FB61BB68DA
:10487C00BB6103E0BB68FB610023BB612EE03B68BE
:10488C0000937B6900228021F86800F01CFB034632
:10489C00002B05D0FB68202283F8412003233AE04B
:1048AC00FB69002B0BD1BB691B881A46FB681B6884
:1048BC00C2F308025A60BB690233BB6107E0FB69B3
:1048CC001A78FB681B685A60FB690133FB61FB6853
:1048DC00DB8C9BB2013B9AB2FB68DA84FB68DB8C05
:1048EC009BB2002BCBD13B6800937B69002240210B
:1048FC00F86800F0E8FA0346002B05D0FB6820228C
:10490C0083F84120032306E0FB68202283F8412032
:10491C00002300E0022318462037BD4680BD80B539
:10492C0084B000AFF860B9601346FB80FB6893F865
:10493C004230DBB2202B12D1BB68002B02D0FB889B
:10494C00002B01D101230BE0FB6800221A63FB88CA
:10495C001A46B968F86800F00FFB034600E0022322
:10496C0018461037BD4680BD80B5BAB000AF786030
:10497C007B681B681B68C7F8E4307B681B68DB68C6
:10498C00C7F8E0307B681B685B69C7F8DC30002334
:10499C00C7F8D8300023C7F8D430D7F8E43003F088
:1049AC000F03C7F8D830D7F8D830002B0FD1D7F871
:1049BC00E43003F02003002B09D0D7F8E03003F0EB
:1049CC002003002B03D0786800F0ECFB5BE2D7F8F7
:1049DC00D830002B00F0DE80D7F8DC3003F0010378
:1049EC00002B06D1D7F8E03003F49073002B00F0C5
:1049FC00D180D7F8E43003F00103002B0BD0D7F8AB
:104A0C00E03003F48073002B05D07B685B6C43F0C3
:104A1C0001027B685A64D7F8E43003F00403002BDE
:104A2C000BD0D7F8DC3003F00103002B05D07B68EA
:104A3C005B6C43F002027B685A64D7F8E43003F0F5
:104A4C000203002B0BD0D7F8DC3003F00103002B52
:104A5C0005D07B685B6C43F004027B685A64D7F822
:104A6C00E43003F00803002B11D0D7F8E03003F04A
:104A7C002003002B05D1D7F8DC3003F00103002B09
:104A8C0005D07B685B6C43F008027B685A647B68DA
:104A9C005B6C002B00F0F281D7F8E43003F02003BC
:104AAC00002B08D0D7F8E03003F02003002B02D005
:104ABC00786800F077FB7B681B685B6903F0400348
:104ACC00002B14BF01230023DBB2C7F8D4307B6862
:104ADC005B6C03F00803002B03D1D7F8D430002B08
:104AEC004FD0786800F081FA7B681B685B6903F033
:104AFC004003002B41D07B681B681433C7F89C30F3
:104B0C00D7F89C3053E8003FC7F89830D7F8983066
:104B1C0023F04003C7F8D0307B681B681433D7F8F8
:104B2C00D020C7F8A820C7F8A430D7F8A410D7F81D
:104B3C00A82041E80023C7F8A030D7F8A030002BFC
:104B4C00D9D17B68DB6B002B13D07B68DB6B7E4A87
:104B5C005A637B68DB6B1846FCF702FC0346002BA0
:104B6C0016D07B68DB6B5B6B7A68D26B1046984710
:104B7C000EE0786800F093F90AE0786800F08FF99D
:104B8C0006E0786800F08BF97B6800225A6475E1C6
:104B9C0000BF73E17B681B6B012B40F04F81D7F892
:104BAC00E43003F01003002B00F04881D7F8E0301C
:104BBC0003F01003002B00F041810023BB607B68E5
:104BCC001B681B68BB607B681B685B68BB60BB6851
:104BDC007B681B685B6903F04003002B00F0B68018
:104BEC007B68DB6B1B685B68A7F8BE30B7F8BE3020
:104BFC00002B00F045817B689B8DB7F8BE209A4254
:104C0C0080F03E817B68B7F8BE20DA857B68DB6B71
:104C1C009B69202B00F088807B681B680C33C7F8DD
:104C2C008830D7F8883053E8003FC7F88430D7F87D
:104C3C00843023F48073C7F8B8307B681B680C335E
:104C4C00D7F8B820C7F89420C7F89030D7F8901050
:104C5C00D7F8942041E80023C7F88C30D7F88C3073
:104C6C00002BD9D17B681B6814337B677B6F53E8AF
:104C7C00003F3B673B6F23F00103C7F8B4307B6800
:104C8C001B681433D7F8B420C7F88020FB67F96F82
:104C9C00D7F8802041E80023BB67BB6F002BE1D124
:104CAC007B681B6814333B663B6E53E8003FFB6527
:104CBC00FB6D23F04003C7F8B0307B681B681433DE
:104CCC00D7F8B020FA66BB66B96EFA6E41E80023DD
:104CDC007B667B6E002BE3D17B68202283F842201D
:104CEC007B6800221A637B681B680C33FB64FB6CCB
:104CFC0053E8003FBB64BB6C23F01003C7F8AC3027
:104D0C007B681B680C33D7F8AC20BA657B65796D72
:104D1C00BA6D41E800233B653B6D002BE3D17B680A
:104D2C00DB6B1846FCF7E1FA7B6802225A637B685E
:104D3C009A8D7B68DB8D9BB2D31A9BB2194678682F
:104D4C0000F0B6F89CE000BFBB5000087B689A8D61
:104D5C007B68DB8D9BB2D31AA7F8CE307B68DB8DDA
:104D6C009BB2002B00F08E80B7F8CE30002B00F0F9
:104D7C0089807B681B680C33BB63BB6B53E8003FBB
:104D8C007B637B6B23F49073C7F8C8307B681B681C
:104D9C000C33D7F8C8207A643B64396C7A6C41E8E0
:104DAC000023FB63FB6B002BE3D17B681B68143384
:104DBC007B627B6A53E8003F3B623B6A23F0010352
:104DCC00C7F8C4307B681B681433D7F8C4203A6327
:104DDC00FB62F96A3A6B41E80023BB62BB6A002BA9
:104DEC00E3D17B68202283F842207B6800221A637F
:104DFC007B681B680C333B613B6953E8003FFB60ED
:104E0C00FB6823F01003C7F8C0307B681B680C33B9
:104E1C00D7F8C020FA61BB61B969FA6941E800238F
:104E2C007B617B69002BE3D17B6802225A63B7F864
:104E3C00CE301946786800F03BF823E0D7F8E43020
:104E4C0003F08003002B09D0D7F8E03003F0800387
:104E5C00002B03D0786800F03EF914E0D7F8E4306A
:104E6C0003F04003002B0ED0D7F8E03003F04003E2
:104E7C00002B08D0786800F07DF904E000BF02E058
:104E8C0000BF00E000BFE837BD4680BD80B483B0F2
:104E9C0000AF786000BF0C37BD4680BC704780B453
:104EAC0083B000AF786000BF0C37BD4680BC704744
:104EBC0080B483B000AF78600B467B8000BF0C37AA
:104ECC00BD4680BC704780B586B000AFF860B96055
:104EDC003B601346FB713BE03B6AB3F1FF3F37D0BD
:104EEC00FCF7C8F802463B68D31A3A6A9A4202D3D6
:104EFC003B6A002B01D103233AE0FB681B68DB689B
:104F0C0003F00403002B23D0BB68802B20D0BB689C
:104F1C00402B1DD0FB681B681B6803F00803082B93
:104F2C0016D100237B61FB681B681B687B61FB68E7
:104F3C001B685B687B617B69F86800F056F8FB685E
:104F4C0008225A64FB68002283F8402001230FE0FA
:104F5C00FB681B681A68BB681340BA689A420CBF9E
:104F6C0001230023DBB21A46FB799A42B4D000230A
:104F7C0018461837BD4680BD80B485B000AFF860C8
:104F8C00B9601346FB80FB68BA689A62FB68FA88C2
:104F9C009A85FB68FA88DA85FB6800225A64FB68FC
:104FAC00222283F84220FB681B69002B07D0FB6888
:104FBC001B68DA68FB681B6842F48072DA60FB6875
:104FCC001B685A69FB681B6842F001025A61FB6856
:104FDC001B68DA68FB681B6842F02002DA60002369
:104FEC0018461437BD4680BC704780B495B000AFEE
:104FFC0078607B681B680C337B637B6B53E8003FEA
:10500C003B633B6B23F49073FB647B681B680C3332
:10501C00FA6C3A64FB63F96B3A6C41E80023BB63AE
:10502C00BB6B002BE5D17B681B6814333B623B6A7E
:10503C0053E8003FFB61FB6923F00103BB647B6811
:10504C001B681433BA6CFA62BB62B96AFA6A41E83B
:10505C0000237B627B6A002BE5D17B681B6B012BE9
:10506C0019D17B681B680C33FB60FB6853E8003F6D
:10507C00BB60BB6823F010037B647B681B680C333C
:10508C007A6CBA617B617969BA6941E800233B614A
:10509C003B69002BE5D17B68202283F842207B689A
:1050AC0000221A6300BF5437BD4680BC704780B5E0
:1050BC0084B000AF78607B685B6AFB60FB680022A1
:1050CC00DA85FB680022DA84F868FFF7E8FE00BF97
:1050DC001037BD4680BD80B485B000AF78607B686A
:1050EC0093F84130DBB2212B3ED17B689B68B3F542
:1050FC00805F14D17B681B69002B10D17B681B6A05
:10510C00FB60FB681B881A467B681B68C2F30802AD
:10511C005A607B681B6A9A1C7B681A6208E07B6881
:10512C001B6A591C7A6811621A787B681B685A6072
:10513C007B68DB8C9BB2013B9BB27A681946D184AD
:10514C00002B0FD17B681B68DA687B681B6822F028
:10515C008002DA607B681B68DA687B681B6842F047
:10516C004002DA60002300E0022318461437BD46E3
:10517C0080BC704780B582B000AF78607B681B68DC
:10518C00DA687B681B6822F04002DA607B682022B8
:10519C0083F841207868FFF779FE0023184608371A
:1051AC00BD4680BD80B58CB000AF78607B6893F84D
:1051BC004230DBB2222B40F0AE807B689B68B3F5AB
:1051CC00805F17D17B681B69002B13D10023FB6216
:1051DC007B689B6ABB627B681B685B689BB2C3F392
:1051EC0008039AB2BB6A1A807B689B6A9A1C7B681C
:1051FC009A6226E07B689B6AFB620023BB627B6839
:10520C009B68B3F5805F07D07B689B68002B0AD145
:10521C007B681B69002B06D17B681B685B68DAB264
:10522C00FB6A1A7008E07B681B685B68DBB203F0F2
:10523C007F03DAB2FB6A1A707B689B6A5A1C7B6824
:10524C009A627B68DB8D9BB2013B9BB27A681946F4
:10525C00D185002B5DD17B681B68DA687B681B6885
:10526C0022F02002DA607B681B68DA687B681B68B6
:10527C0022F48072DA607B681B685A697B681B6851
:10528C0022F001025A617B68202283F842207B685D
:10529C0000225A637B681B6B012B35D17B68002283
:1052AC001A637B681B680C337B617B6953E8003F96
:1052BC003B613B6923F010037B627B681B680C33FA
:1052CC007A6A3A62FB61F9693A6A41E80023BB6188
:1052DC00BB69002BE5D17B681B681B6803F01003CE
:1052EC00102B0AD10023FB607B681B681B68FB60DA
:1052FC007B681B685B68FB60FB687B689B8D194651
:10530C007868FFF7D5FD02E07868FBF7FBFC00231B
:10531C0002E0002300E0022318463037BD4680BD72
:10532C0080B584B000AF78607B681B681B6923F480
:10533C0040517B68DA687B681B680A431A617B689A
:10534C009A687B681B691A437B685B691343BB6073
:10535C007B681B68DB6823F4B05323F00C037A687A
:10536C001268B9680B43D3607B681B685B6923F4D4
:10537C0040717B689A697B681B680A435A617B6839
:10538C001B682C4A934203D1FFF706F9F86002E040
:10539C00FFF7EEF8F860FA6813469B0013449A0086
:1053AC001A447B685B689B00B2FBF3F3224AA2FBB6
:1053BC0003235B091901FA6813469B0013449A00F6
:1053CC001A447B685B689B00B2FBF3F21A4BA3FB9D
:1053DC0002035B09642000FB03F3D31A1B01323375
:1053EC00154AA2FB03235B0903F0F0031944FA6886
:1053FC0013469B0013449A001A447B685B689B001D
:10540C00B2FBF3F20C4BA3FB02035B09642000FB21
:10541C0003F3D31A1B013233074AA2FB03235B09A4
:10542C0003F00F027B681B680A449A6000BF1037B8
:10543C00BD4680BD003801401F85EB5180B485B05E
:10544C0000AFF860384680E80E0000231846143789
:10545C00BD4680BC704780B485B000AF78607B6877
:10546C000022A3F844204FF43F43FB60FB689AB240
:10547C007B68A3F84020002318461437BD4680BC37
:10548C00704780B485B000AF78604FF43F43FB6049
:10549C007B68B3F840309AB2FB689BB2DB439BB29B
:1054AC0013409AB27B68A3F84020002318461437A7
:1054BC00BD4680BC704780B483B000AF78600B46AB
:1054CC00FB70002318460C37BD4680BC704780B477
:1054DC0085B000AFF860384680E80E00FB6801220A
:1054EC00A3F84020FB680022A3F84020FB680022B0
:1054FC00A3F84420FB680022A3F850200023184690
:10550C001437BD4680BC704780B49DB000AF786046
:10551C003960002387F86F307A683B681B789B00F2
:10552C0013441B889BB223F4EC4323F07003A7F8BD
:10553C006C303B68DB78032B1FD801A252F823F0A8
:10554C005D550008795500088F5500086B5500080B
:10555C00B7F86C3043F40073A7F86C3012E0B7F86E
:10556C006C3043F4C063A7F86C300BE0B7F86C30C8
:10557C0043F48063A7F86C3004E0012387F86F30A4
:10558C0000E000BF7A683B681B789B001A44B7F8B0
:10559C006C3043F07F4343F47F0343F4004343F008
:1055AC0080039BB213807A683B681B789B00134482
:1055BC001B889BB223F4E04323F070039BB23A6840
:1055CC0012781343A7F866307A683B681B789B0007
:1055DC001A44B7F8663043F07F4343F47F0343F437
:1055EC00004343F080039BB213803B681B7B002B72
:1055FC0040F078813B685B78002B00F084807B68FE
:10560C00BB617B68B3F850309BB21A46BB6913443C
:10561C00BB613B681B781A01BB69134403F58063BB
:10562C007B613B68DB885B089BB25B009AB27B6951
:10563C001A807A683B681B789B0013441B887B821A
:10564C007B8A03F04003002B1BD07A683B681B78E5
:10565C009B0013441B889BB223F4E04323F070039C
:10566C003B827A683B681B789B001A443B8A43F068
:10567C007F4343F47F0343F4004343F0C0039BB2E6
:10568C0013803B68DB78012B20D07A683B681B7851
:10569C009B0013441B889BB223F4E04323F040038C
:1056AC00BB81BB8983F02003BB817A683B681B7884
:1056BC009B001A44BB8943F07F4343F47F0343F4BC
:1056CC00004343F080039BB21380D5E27A683B68B9
:1056DC001B789B0013441B889BB223F4E04323F0FC
:1056EC004003FB817A683B681B789B001A44FB895A
:1056FC0043F07F4343F47F0343F4004343F08003C0
:10570C009BB21380B8E27B683B637B68B3F8503084
:10571C009BB21A463B6B13443B633B681B781A01E4
:10572C003B6B134403F58163FB623B68DB885B08CE
:10573C009BB25B009AB2FB6A1A807B68BB627B6887
:10574C00B3F850309BB21A46BB6A1344BB623B6839
:10575C001B781A01BB6A134403F20C437B627B6A0D
:10576C001B889BB2C3F309039AB27B6A1A803B680D
:10577C001B693E2B1DD93B681B695B09BB663B68EB
:10578C001B6903F01F03002B02D1BB6E013BBB66F0
:10579C007B6A1B889AB2BB6E9BB29B029BB2134373
:1057AC009BB26FEA43436FEA53439AB27B6A1A8007
:1057BC0026E03B681B69002B0AD17B6A1B889BB2D5
:1057CC006FEA43436FEA53439AB27B6A1A8017E03D
:1057DC003B681B695B08BB663B681B6903F00103F4
:1057EC00002B02D0BB6E0133BB667B6A1B889AB25E
:1057FC00BB6E9BB29B029BB213439AB27B6A1A801C
:10580C007A683B681B789B0013441B887B847B8CD9
:10581C0003F48043002B1BD07A683B681B789B00F9
:10582C0013441B889BB223F4E04323F070033B84A6
:10583C007A683B681B789B001A443B8C43F07F438F
:10584C0043F47F0343F4404343F080039BB2138043
:10585C003B681B78002B24D17A683B681B789B0033
:10586C0013441B889BB223F4804323F07003BB8347
:10587C00BB8B83F48053BB83BB8B83F40053BB8300
:10588C007A683B681B789B001A44BB8B43F07F43C0
:10589C0043F47F0343F4004343F080039BB2138033
:1058AC00EAE17A683B681B789B0013441B889BB227
:1058BC0023F4804323F07003FB83FB8B83F40053AE
:1058CC00FB837A683B681B789B001A44FB8B43F084
:1058DC007F4343F47F0343F4004343F080039BB2C4
:1058EC001380C9E13B68DB78022B1ED17A683B68D8
:1058FC001B789B0013441B889BB223F4E04323F0DA
:10590C007003A7F862307A683B681B789B001A44D6
:10591C00B7F8623043F07F4343F47F0343F4014311
:10592C0043F080039BB213801DE07A683B681B78C0
:10593C009B0013441B889BB223F4E24323F07003B7
:10594C00A7F864307A683B681B789B001A44B7F858
:10595C00643043F07F4343F47F0343F4004343F04C
:10596C0080039BB213807B68FB657B68B3F8503077
:10597C009BB21A46FB6D1344FB653B681B781A01FE
:10598C00FB6D134403F58063BB653B681B895B08A7
:10599C009BB25B009AB2BB6D1A807B687B657B689F
:1059AC00B3F850309BB21A467B6D13447B653B6851
:1059BC001B781A017B6D134403F581633B653B68CF
:1059CC005B895B089BB25B009AB23B6D1A803B68AB
:1059DC005B78002B40F093807A683B681B789B00C7
:1059EC0013441B88A7F84030B7F8403003F48043C9
:1059FC00002B1BD07A683B681B789B0013441B88D8
:105A0C009BB223F4E04323F07003FB877A683B6876
:105A1C001B789B001A44FB8F43F07F4343F47F03B6
:105A2C0043F4404343F080039BB213807A683B6895
:105A3C001B789B0013441B88BB87BB8F03F0400370
:105A4C00002B1BD07A683B681B789B0013441B8887
:105A5C009BB223F4E04323F070037B877A683B68A6
:105A6C001B789B001A447B8F43F07F4343F47F03E6
:105A7C0043F4004343F0C0039BB213807A683B6845
:105A8C001B789B0013441B889BB223F4804323F0A8
:105A9C0070033B873B8F83F480533B873B8F83F4AE
:105AAC0000533B877A683B681B789B001A443B8FFA
:105ABC0043F07F4343F47F0343F4004343F08003FC
:105ACC009BB213807A683B681B789B0013441B883D
