:020000040800F2
:1000000000500020090F0008190D0008210D0008FC
:10001000290D0008310D0008390D0008000000000E
:10002000000000000000000000000000410D00087A
:100030004D0D000800000000590D0008650D000876
:10004000510F0008510F0008510F0008510F000810
:10005000510F0008510F0008510F0008510F000800
:10006000510F0008510F0008510F0008510F0008F0
:10007000510F0008510F0008510F0008510F0008E0
:10008000510F0008510F0008510F0008510F0008D0
:10009000510F0008510F0008510F0008510F0008C0
:1000A000510F0008510F0008510F0008510F0008B0
:1000B000510F0008510F0008510F0008510F0008A0
:1000C000510F0008510F0008510F0008510F000890
:1000D000510F0008510F0008710D0008510F000862
:1000E000510F0008510F0008510F000800000000D8
:1000F0000000000000000000000000000000000000
:0C01000000000000000000005FF808F1A3
:10010C0010B5054C237833B9044B13B10448AFF345
:10011C0000800123237010BD980000200000000017
:10012C00203A000808B5034B1BB103490348AFF351
:10013C00008008BD000000009C000020203A000850
:10014C0010F8012B11F8013B012A28BF9A42F7D075
:10015C00D01A704780B582B000AF44F620630122FC
:10016C0078214C4801F0F0FC0346002B01D0002311
:10017C008BE040F6C4137B6002E07B68013B7B6044
:10018C007B68002BF9D1AE220021782000F052FAC6
:10019C00B0220021782000F04DFA81220021782035
:1001AC0000F048FAFF220021782000F043FAA12247
:1001BC000021782000F03EFAA6220021782000F0E1
:1001CC0039FAA8220021782000F034FA3F220021CD
:1001DC00782000F02FFAAD220021782000F02AFAC6
:1001EC008B220021782000F025FA32220021782081
:1001FC0000F020FAC8220021782000F01BFAD3224C
:10020C000021782000F016FA00220021782000F05E
:10021C0011FAD5220021782000F00CFA802200215E
:10022C00782000F007FAD9220021782000F002FA99
:10023C001F220021782000F0FDF9DA22002178201D
:10024C0000F0F8F912220021782000F0F3F9DB22FB
:10025C000021782000F0EEF940220021782000F0F7
:10026C00E9F9AF220021782000F0E4F9002000F039
:10027C0043F800F013F8084B00221A80064B0022BA
:10028C005A80054B01225A71012318460837BD4686
:10029C0080BD00BFBC040020B404002080B582B037
:1002AC0000AF0023FB711DE0FB79503BDBB21A461B
:1002BC000021782000F0BEF900220021782000F007
:1002CC00B9F910220021782000F0B4F9FB79DB0198
:1002DC00084A1A4480234021782000F045F9FB7924
:1002EC000133FB71FB79072BDED900BF00BF083748
:1002FC00BD4680BDB400002080B582B000AF03467F
:10030C00FB71FB79002B01D1002300E0FF234FF49C
:10031C0080621946034803F03DFB00BF0837BD4619
:10032C0080BD00BFB400002080B483B000AF034692
:10033C00FB800B46BB801346FB70FB887F2B48D899
:10034C00BB883F2B45D8254B1B79002B06D0FB785F
:10035C00002B0CBF01230023DBB2FB70FB78012BBD
:10036C001AD1FA88BB88DB0898B20346DB01134428
:10037C001B4AD35C5AB2BB8803F00703012101FA74
:10038C0003F35BB2134359B2FA880346DB011344FF
:10039C00C9B2134AD1541DE0FA88BB88DB0898B265
:1003AC000346DB0113440E4AD35C5AB2BB8803F0FC
:1003BC000703012101FA03F35BB2DB435BB2134089
:1003CC0059B2FA880346DB011344C9B2044AD1542A
:1003DC0000E000BF0C37BD4680BC7047B404002061
:1003EC00B400002080B483B000AF03460A46FB8003
:1003FC001346BB80054AFB881380044ABB88538094
:10040C0000BF0C37BD4680BC704700BFB404002051
:10041C0080B586B000AF03463960FB711346BB71E3
:10042C00394B1B881A463B681B7813447F2B07DC1F
:10043C00354B5B881A463B685B7813443F2B01DDD8
:10044C0000235DE000237B614BE03B685A68FB793D
:10045C00203B3968497801FB03F319467B690B444F
:10046C005B0013441B88FB6000233B6130E0FA689F
:10047C003B6902FA03F303F40043002B10D0224B28
:10048C001A883B699BB2134498B21F4B5A887B69FC
:10049C009BB213449BB2BA791946FFF745FF14E09F
:1004AC00194B1A883B699BB2134498B2164B5A8865
:1004BC007B699BB2134499B2BB79002B0CBF01230F
:1004CC000023DBB21A46FFF72FFF3B6901333B6178
:1004DC003B681B781A463B699342C8D37B6901334E
:1004EC007B613B685B781A467B699342ADD3064BC4
:1004FC001B883A68127813449AB2034B1A80FB7922
:10050C0018461837BD4680BDB404002080B584B0B1
:10051C0000AFF860B9601346FB7112E0FB681B7802
:10052C00FA79B9681846FFF773FF03461A46FB6859
:10053C001B789A4202D0FB681B7808E0FB680133F9
:10054C00FB60FB681B78002BE8D1FB681B78184616
:10055C001037BD4680BD80B500AF0020FFF7CCFE44
:10056C00FFF79CFE00BF80BD90B5C7B002AF04463C
:10057C00084607F58871A1F588710A60194607F5D8
:10058C008873A3F2091322461A7007F58873A3F532
:10059C00857302461A7007F58873A3F586730A46AD
:1005AC001A8007F58873A3F5827307F58872A2F594
:1005BC00857212781A70002387F80F3115E097F8BE
:1005CC000F3107F58872A2F5887212681A4497F8F1
:1005DC000F310133117807F58872A2F58272D1546C
:1005EC0097F80F31013387F80F3197F80F319BB221
:1005FC0007F58872A2F5867212889A42DFD807F541
:10060C008873A3F209131B7899B207F58873A3F5C5
:10061C0086731B8801339BB207F10C020A200090F1
:10062C00034801F093F900BF07F58A77BD4690BDEA
:10063C00BC04002080B586B002AF0346FB710B46AC
:10064C00BB7113467B71BB793B737B797B73FB79F5
:10065C0099B207F10C020A2300930223034801F01C
:10066C0075F900BF1037BD4680BD00BFBC0400202B
:10067C0080B588B000AF07F1100300221A605A60F1
:10068C009A60DA601D4B9B691C4A43F0200393610E
:10069C001A4B9B6903F02003FB60FB68174B9B69AB
:1006AC00164A43F004039361144B9B6903F0040353
:1006BC00BB60BB68114B9B69104A43F00803936104
:1006CC000E4B9B6903F008037B607B6800221021B2
:1006DC000B4800F0DFFF10233B6101237B610023FB
:1006EC00BB610223FB6107F110031946044800F0BB
:1006FC004DFE00BF2037BD4680BD00BF001002403C
:10070C000008014080B500AF124B134A1A60114B20
:10071C00124A5A600F4B00229A600E4B0022DA608C
:10072C000C4B4FF480421A610A4B00225A61094B60
:10073C0000229A61074B0022DA61064B00221A62F2
:10074C00044800F0BFFF0346002B01D000F0A6FACE
:10075C0000BF80BDBC04002000540040801A06007D
:10076C0080B588B000AF786007F1100300221A60E2
:10077C005A609A60DA607B681B68154A934223D1F1
:10078C00144B9B69134A43F008039361114B9B690B
:10079C0003F00803FB60FB68C0233B6112237B6101
:1007AC000323FB6107F1100319460B4800F0EEFD23
:1007BC00084BDB69074A43F40013D361054BDB6933
:1007CC0003F40013BB60BB6800BF2037BD4680BD7F
:1007DC000054004000100240000C0140B0B48BB03B
:1007EC0000AFF8600B467A60FB72244B07F11404DF
:1007FC001D460FCD0FC42B682370002387F82730BC
:10080C002AE097F82730FA6813441B781B09DBB2EF
:10081C0003F00F0297F827305B0019467B680B44F6
:10082C0028323A4412F8142C1A7097F82730FA68C8
:10083C0013441B7803F00F0297F827305B00013349
:10084C0079680B4428323A4412F8142C1A7097F831
:10085C002730013387F8273097F82720FB7A9A4204
:10086C00CFD3FB7A5B001A467B68134400221A70C4
:10087C0000BF2C37BD46B0BC704700BF383A0008EB
:10088C0080B588B000AF78607B68002B71D07B6836
:10089C001B78002B6DD039497868FFF751FC034663
:1008AC00002B05D100F0A8FB0346354A136061E02C
:1008BC0080227968314803F075F8304B002283F8B8
:1008CC00802000F099FB03462D4A13600122102171
:1008DC002C4800F0DFFE00F08FFB034650332A4A11
:1008EC001360FFF738FE00210020FFF77BFD01228B
:1008FC0026492748FFF70AFE0C23FB7712237B7748
:10090C002DE00023BB770CE07B685A1C7A60BA7F21
:10091C00511CB97711461A7801F120033B4403F8B6
:10092C00182C7B681B78002B03D0BA7F7B7F9A42F4
:10093C00EAD3BB7F20333B44002203F8182CFB7F07
:10094C009BB219460020FFF74DFD07F10803012269
:10095C000E491846FFF7DAFDFB7F0C33FB777B68FB
:10096C001B78002B02D0FB7F362BCAD9FFF796FCE5
:10097C0000E000BF2037BD4680BD00BF080000204E
:10098C001C07002000080140240700200000002064
:10099C004C3A000880B500AF15491648FFF7D0FB5C
:1009AC000346002B22D0134B114A92E80300186027
:1009BC0004331980002210210F4800F06BFEFFF762
:1009CC00CAFD00210020FFF70DFD01220B490C4848
:1009DC00FFF79CFD0C210020FFF704FD01220749C5
:1009EC000848FFF793FDFFF759FC00E000BF80BDFE
:1009FC00543A0008080000200008014000000020C4
:100A0C004C3A00085C3A000880B5A4B000AF00F086
:100A1C009BFA00F0B3F8FFF72BFEFFF773FE00F024
:100A2C00B1F900F02BFA01224A494B4802F020FAA6
:100A3C00FFF790FBFFF78FFDFFF730FCFFF7AAFFE6
:100A4C0000221021454800F025FE454B1B889BB227
:100A5C00092B29D900F0D0FA0246424B1B68D31A55
:100A6C000A2B21D9404B1B7A87F88E3097F88E30A1
:100A7C00002B16D097F88E300833394A128892B270
:100A8C0093420EDA394BC7F888303A1D97F88E30FE
:100A9C001946D7F88800FFF7A1FE3B1D1846FFF753
:100AAC00EFFE2F4B00221A8000F0A6FA0246304BC4
:100ABC001B68D31AB3F5FA6F01D9FFF76BFF00234C
:100ACC0087F88F3000F098FA0246264B1B68D31A31
:100ADC00632B03D8012387F88F3002E0002387F8BB
:100AEC008F3097F88F30002B18D000F085FA024623
:100AFC00204B1B689A4219D301221021174800F091
:100B0C00C9FD00F079FA034650331B4A136000F01C
:100B1C0073FA0346C833174A136007E0002210210A
:100B2C000E4800F0B7FD144B00221A60124B1B68E4
:100B3C00002B8AD000F060FA02460F4B1B689A42D9
:100B4C0083D300221021054800F0A4FD0A4B00229B
:100B5C001A607AE7100500202807002000080140E1
:100B6C001407002018070020140500201D05002084
:100B7C001C070020200700202407002080B594B01B
:100B8C0000AF07F1280328220021184602F002FFCB
:100B9C0007F1140300221A605A609A60DA601A6135
:100BAC003B1D00221A605A609A60DA600123BB6216
:100BBC004FF48033FB6200233B630123BB630223AE
:100BCC007B644FF48033BB644FF4E013FB6407F198
:100BDC002803184601F036FC0346002B01D000F028
:100BEC005DF80F237B610223BB610023FB614FF493
:100BFC0080633B6200237B6207F1140302211846D9
:100C0C0001F0A2FE0346002B01D000F047F81023A0
:100C1C007B6000233B613B1D184602F023F8034622
:100C2C00002B01D000F03AF800BF5037BD4680BD14
:100C3C0080B584B000AF786000F0DEF9F8607B68B6
:100C4C001B68104A934219D10F4B1B889BB2B3F50A
:100C5C00007F0BD20C4B1B889BB25A1C91B20A4AD8
:100C6C0011801A46094B1978094B9954094AFB68AB
:100C7C00136001220549084802F0FAF800BF10374A
:100C8C00BD4680BD00440040140700201005002024
:100C9C0014050020180700202807002080B400AF9E
:100CAC0072B600BF00BFFDE780B485B000AF154B36
:100CBC009B69144A43F001039361124B9B6903F047
:100CCC000103BB60BB680F4BDB690E4A43F08053DA
:100CDC00D3610C4BDB6903F080537B607B680A4B60
:100CEC005B68FB60FB6823F0E063FB60FB6843F030
:100CFC000073FB60044AFB68536000BF1437BD46A9
:100D0C0080BC7047001002400000014080B400AF6E
:100D1C0000BFFDE780B400AF00BFFDE780B400AFBB
:100D2C0000BFFDE780B400AF00BFFDE780B400AFAB
:100D3C0000BFFDE780B400AF00BFBD4680BC70476C
:100D4C0080B400AF00BFBD4680BC704780B400AF1C
:100D5C0000BFBD4680BC704780B500AF00F03AF9CB
:100D6C0000BF80BD80B500AF024802F0A7F800BFFD
:100D7C0080BD00BF2807002080B400AF00BFBD4677
:100D8C0080BC704780B500AF114B124A1A60104BF3
:100D9C004FF4E1225A600E4B00229A600C4B002259
:100DAC00DA600B4B00221A61094B0C225A61084B7A
:100DBC0000229A61064B0022DA61054802F008F81D
:100DCC000346002B01D0FFF769FF00BF80BD00BFB9
:100DDC00280700200044004080B588B000AF786040
:100DEC0007F1100300221A605A609A60DA607B687F
:100DFC001B681F4A934237D11E4BDB691D4A43F4D3
:100E0C000033D3611B4BDB6903F40033FB60FB68DD
:100E1C00184B9B69174A43F004039361154B9B696C
:100E2C0003F00403BB60BB6804233B6102237B61BA
:100E3C000323FB6107F1100319460F4800F0A6FAD3
:100E4C0008233B6100237B610023BB6107F1100386
:100E5C001946094800F09AFA00220021262000F0D9
:100E6C00ACF9262000F0C5F900BF2037BD4680BD87
:100E7C0000440040001002400008014080B500AF63
:100E8C000D4B0E4A1A600C4B08221A710A4B0222A7
:100E9C009A71094B00229A72074B0022DA72064BA8
:100EAC0000221A73044801F0D7F90346002B01D035
:100EBC00FFF7F4FE00BF80BD70070020005C00400F
:100ECC0080B485B000AF78607B681B68094A934298
:100EDC000BD1094BDB69084A43F40003D361064B81
:100EEC00DB6903F40003FB60FB6800BF1437BD46ED
:100EFC0080BC7047005C004000100240FFF73CFFD4
:100F0C000B480C490C4A002302E0D458C45004335B
:100F1C00C4188C42F9D3094A094C002301E0136030
:100F2C000432A242FBD302F051FDFFF76DFD704776
:100F3C0000000020980000200C42000898000020BF
:100F4C004C0A0020FEE7000080B500AF084B1B6880
:100F5C00074A43F010031360032000F023F90F201D
:100F6C0000F008F8FFF7A0FE0023184680BD00BF74
:100F7C000020024080B582B000AF7860124B1A6836
:100F8C00124B1B7819464FF47A73B3FBF1F3B2FB97
:100F9C00F3F3184600F03BF90346002B01D0012374
:100FAC000EE07B680F2B0AD8002279684FF0FF30D7
:100FBC0000F003F9064A7B681360002300E001236C
:100FCC0018460837BD4680BD8C00002094000020D8
:100FDC009000002080B400AF054B1B781A46054BDF
:100FEC001B681344034A136000BFBD4680BC7047A6
:100FFC0094000020480A002080B400AF024B1B680C
:10100C001846BD4680BC7047480A002080B485B0A5
:10101C0000AF78607B6803F00703FB600C4BDB6868
:10102C00BB60BA684FF6FF031340BB60FB681A0243
:10103C00BB68134343F0BF6343F40033BB60044A03
:10104C00BB68D36000BF1437BD4680BC704700BF7F
:10105C0000ED00E080B400AF044BDB681B0A03F02A
:10106C0007031846BD4680BC704700BF00ED00E08A
:10107C0080B483B000AF0346FB7197F90730002BA7
:10108C000BDBFB7903F01F02064997F907305B096C
:10109C00012000FA02F241F8232000BF0C37BD46B4
:1010AC0080BC704700E100E080B483B000AF034621
:1010BC003960FB7197F90730002B0ADB3B68DAB219
:1010CC000C4997F907301201D2B20B4483F8002374
:1010DC000AE03B68DAB20849FB7903F00F03043BE2
:1010EC001201D2B20B441A7600BF0C37BD4680BC3D
:1010FC00704700BF00E100E000ED00E080B489B073
:10110C0000AFF860B9607A60FB6803F00703FB611D
:10111C00FB69C3F10703042B28BF0423BB61FB69E4
:10112C000433062B02D9FB69033B00E000237B61EF
:10113C004FF0FF32BB6902FA03F3DA43BB681A4083
:10114C007B699A404FF0FF317B6901FA03F3D94375
:10115C007B680B40134318462437BD4680BC704750
:10116C0080B582B000AF78607B68013BB3F1807FC3
:10117C0001D301230FE00A4A7B68013B53600F2126
:10118C004FF0FF30FFF790FF054B00229A60044BA5
:10119C0007221A60002318460837BD4680BD00BFE1
:1011AC0010E000E080B582B000AF78607868FFF79F
:1011BC002DFF00BF0837BD4680BD80B586B000AF9F
:1011CC000346B9607A60FB7300237B61FFF742FF33
:1011DC0078617A68B9687869FFF790FF024697F9E9
:1011EC000F3011461846FFF75FFF00BF1837BD469A
:1011FC0080BD80B582B000AF0346FB7197F9073014
:10120C001846FFF735FF00BF0837BD4680BD80B5D7
:10121C0082B000AF78607868FFF7A2FF03461846EB
:10122C000837BD4680BD80B485B000AF7860002320
:10123C00FB737B6893F82130DBB2022B08D07B6800
:10124C0004229A637B68002283F82020012320E08B
:10125C007B681B681A687B681B6822F00E021A6098
:10126C007B681B681A687B681B6822F001021A6095
:10127C007B681A6C7B68DB6B012101FA02F25A6005
:10128C007B68012283F821207B68002283F82020D0
:10129C00FB7B18461437BD4680BC704780B584B0C4
:1012AC0000AF78600023FB737B6893F82130DBB2CE
:1012BC00022B05D07B6804229A630123FB7351E057
:1012CC007B681B681A687B681B6822F00E021A6028
:1012DC007B681B681A687B681B6822F001021A6025
:1012EC007B681B68224A934229D07B681B68214A81
:1012FC00934222D07B681B681F4A93421AD07B68AA
:10130C001B681E4A934212D07B681B681C4A93428E
:10131C000AD07B681B681B4A934202D14FF480139E
:10132C000EE04FF080730BE04FF4803308E04FF485
:10133C00805305E04FF4807302E0102300E001239A
:10134C00114A53607B68012283F821207B680022BC
:10135C0083F820207B685B6B002B03D07B685B6B76
:10136C0078689847FB7B18461037BD4680BD00BF98
:10137C00080002401C0002403000024044000240C1
:10138C00580002406C0002400000024080B48BB058
:10139C0000AF7860396000237B6200233B6269E117
:1013AC0001227B6A02FA03F3FB613B681B68FA6952
:1013BC001340BB61BA69FB699A4240F058813B68A3
:1013CC005B689A4A93425ED0984A934275D8984A81
:1013DC00934258D0964A93426FD8964A934252D031
:1013EC00944A934269D8944A93424CD0924A93427D
:1013FC0063D8924A934246D0904A93425DD8122BBE
:10140C002AD8122B59D801A252F823F093140008B1
:10141C006D1400087F140008C1140008C7140008DC
:10142C00C7140008C7140008C7140008C714000824
:10143C00C7140008C7140008C7140008C714000814
:10144C00C7140008C7140008C7140008C714000804
:10145C007514000889140008794A934213D02CE0C3
:10146C003B68DB683B6229E03B68DB6804333B622A
:10147C0024E03B68DB6808333B621FE03B68DB68B9
:10148C000C333B621AE03B689B68002B02D10423AF
:10149C003B6213E03B689B68012B05D108233B6240
:1014AC007B68FA691A6109E008233B627B68FA6978
:1014BC005A6103E000233B6200E000BFBB69FF2BD5
:1014CC0001D87B6801E07B6804337B61BB69FF2B2F
:1014DC0002D87B6A9B0002E07B6A083B9B003B6165
:1014EC007B691A680F213B6901FA03F3DB431A404D
:1014FC00396A3B6901FA03F31A437B691A603B684A
:10150C005B6803F08053002B00F0B1804D4B9B695E
:10151C004C4A43F0010393614A4B9B6903F001036E
:10152C00BB60BB68484A7B6A9B08023352F8233085
:10153C00FB607B6A03F003039B000F2202FA03F3A8
:10154C00DB43FA681340FB607B68404A934213D03C
:10155C007B683F4A93420DD07B683E4A934207D04A
:10156C007B683D4A934201D1032306E0042304E047
:10157C00022302E0012300E000237A6A02F0030256
:10158C0092009340FA681343FB602F497B6A9B08D7
:10159C000233FA6841F823203B685B6803F480133C
:1015AC00002B06D02D4B9A682C49BB6913438B60DA
:1015BC0006E02A4B9A68BB69DB43284913408B60D1
:1015CC003B685B6803F40013002B06D0234BDA68EE
:1015DC002249BB691343CB6006E0204BDA68BB6938
:1015EC00DB431E491340CB603B685B6803F400335C
:1015FC00002B06D0194B5A681849BB6913434B6032
:10160C0006E0164B5A68BB69DB43144913404B6028
:10161C003B685B6803F48033002B21D00F4B1A68B6
:10162C000E49BB6913430B6021E000BF0000321070
:10163C0000003110000022100000211000001210D8
:10164C000000111000100240000001400008014091
:10165C00000C014000100140001401400004014046
:10166C000B4B1A68BB69DB43094913400B607B6A5F
:10167C0001337B623B681A687B6A22FA03F3002B06
:10168C007FF48EAE00BF00BF2C37BD4680BC7047C8
:10169C000004014080B483B000AF78600B467B80BF
:1016AC0013467B707B78002B03D07A887B681A6199
:1016BC0003E07B881A047B681A6100BF0C37BD46B7
:1016CC0080BC704780B584B000AF78607B68002B1D
:1016DC0001D101232BE17B6893F83D30DBB2002B69
:1016EC0006D17B68002283F83C207868FFF738F835
:1016FC007B68242283F83D207B681B681A687B6812
:10170C001B6822F001021A607B681B681A687B68F0
:10171C001B6842F400421A607B681B681A687B687D
:10172C001B6822F400421A6001F056FAF8607B68DC
:10173C005B68814A934207D8FB68804A934294BF06
:10174C0001230023DBB206E0FB687D4A934294BF81
:10175C0001230023DBB2002B01D00123E7E0FB685F
:10176C00784AA2FB03239B0CBB607B681B685B68FD
:10177C0023F03F017B681B68BA680A435A607B6898
:10178C001B681B6A23F03F017B685B686A4A9342C3
:10179C0002D8BB68013309E0BB684FF4967202FBB8
:1017AC0003F3694AA2FB03239B0901337A6812688D
:1017BC000B4313627B681B68DB6923F44F4222F0F6
:1017CC00FF027B685B685C498B4219D8FB68591E29
:1017DC007B685B685B00B1FBF3F3591C40F6FC7350
:1017EC000B40002B0AD0FB68591E7B685B685B00C2
:1017FC00B1FBF3F30133C3F30B0351E004234FE0CC
:10180C007B689B68002B11D1FB68581E7B6859685C
:10181C000B465B000B44B0FBF3F30133C3F30B0338
:10182C00002B0CBF01230023DBB212E0FB68581E17
:10183C007B6859680B469B000B4499000B44B0FB2A
:10184C00F3F30133C3F30B03002B0CBF0123002371
:10185C00DBB2002B01D0012322E07B689B68002BBC
:10186C000ED1FB68581E7B6859680B465B000B4415
:10187C00B0FBF3F30133C3F30B0343F400430FE06A
:10188C00FB68581E7B6859680B469B000B449900FB
:10189C000B44B0FBF3F30133C3F30B0343F44043AA
:1018AC00796809681343CB617B681B681B6823F05C
:1018BC00C0017B68DA697B681B6A1A437B681B680A
:1018CC000A431A607B681B689B6823F4034323F06C
:1018DC00FF037A6811697A68D26811437A681268D2
:1018EC000B4393607B681B68DB6823F0FF017B680C
:1018FC005A697B689B691A437B681B680A43DA60E8
:10190C007B681B681A687B681B6842F001021A60CE
:10191C007B6800221A647B68202283F83D207B6858
:10192C0000221A637B68002283F83E2000231846AD
:10193C001037BD4680BD00BFA08601007F841E000D
:10194C00FF083D0083DE1B43D34D621080B588B089
:10195C0002AFF8607A601A460B467B8113463B81D6
:10196C00FFF74AFB7861FB6893F83D30DBB2202B24
:10197C0040F0E0807B690093192301227049F868DC
:10198C0000F092FA0346002B01D00223D3E0FB684F
:10199C0093F83C30012B01D10223CCE0FB680122EF
:1019AC0083F83C20FB681B681B6803F00103012BC8
:1019BC0007D0FB681B681A68FB681B6842F00102C1
:1019CC001A60FB681B681A68FB681B6822F40062CB
:1019DC001A60FB68212283F83D20FB68102283F8F3
:1019EC003E20FB6800221A64FB687A685A62FB6826
:1019FC003A895A85FB685B8D9AB2FB681A85FB683D
:101A0C00504ADA6279897B693A6AF86800F0CAF957
:101A1C000346002B01D001238DE000233B61FB68C2
:101A2C001B685B693B61FB681B689B693B613B699D
:101A3C0066E07A69396AF86800F050FB0346002BBF
:101A4C000DD0FB681B6C042B07D1FB681B681A6854
:101A5C00FB681B6842F400721A6001236BE0FB68A0
:101A6C005B6A1A78FB681B681A61FB685B6A5A1C14
:101A7C00FB685A62FB685B8D9BB2013B9AB2FB68B8
:101A8C005A85FB681B8D013B9AB2FB681A85FB6873
:101A9C001B685B6903F00403042B1BD1FB681B8DD3
:101AAC00002B17D0FB685B6A1A78FB681B681A61FD
:101ABC00FB685B6A5A1CFB685A62FB685B8D9BB2C5
:101ACC00013B9AB2FB685A85FB681B8D013B9AB2AD
:101ADC00FB681A857A69396AF86800F047FB034697
:101AEC00002B0DD0FB681B6C042B07D1FB681B680B
:101AFC001A68FB681B6842F400721A6001231AE032
:101B0C00FB681B8D002B94D1FB681B681A68FB6863
:101B1C001B6842F400721A60FB68202283F83D2097
:101B2C00FB68002283F83E20FB68002283F83C20EF
:101B3C00002300E0022318461837BD4680BD00BFC5
:101B4C00020010000000FFFF80B58AB002AFF86001
:101B5C007A603B600B467B81FFF74EFAF8610023FD
:101B6C00BB61FB6893F83D30DBB2202B40F0118158
:101B7C00FB690093192301228849F86800F094F955
:101B8C000346002B01D0022304E1FB6893F83C30A0
:101B9C00012B01D10223FDE0FB68012283F83C20DC
:101BAC00FB681B681B6803F00103012B07D0FB6863
:101BBC001B681A68FB681B6842F001021A60FB681C
:101BCC001B681A68FB681B6822F400621A60FB68C9
:101BDC00242283F83D20FB6800221A64FB68704ABB
:101BEC00DA62FB681B681A68FB681B6842F4807237
:101BFC001A60FB6900933B6800224FF00111F868F2
:101C0C0000F052F90346002B0DD0FB681B681B68D3
:101C1C0003F48073B3F5807F03D1FB684FF400723B
:101C2C001A640323B6E07B89DBB21A46FB681B6897
:101C3C0002F0FE021A61FFF7DFF9F861FB681B681E
:101C4C005B6903F00203022B0CBF01230023DBB200
:101C5C00FB75FB681B685B6903F48063B3F5806FED
:101C6C000CBF01230023DBB2BB7525E0FFF7C4F9E1
:101C7C000246FB69D31A3A689A4202D33B68002B9E
:101C8C0003D1FB68A02283F83D20FB681B685B69CD
:101C9C0003F00203022B0CBF01230023DBB2FB7504
:101CAC00FB681B685B6903F48063B3F5806F0CBF42
:101CBC0001230023DBB2BB75FB6893F83D30DBB22C
:101CCC00A02B05D0FB7D002B02D1BB7D002BCDD0F2
:101CDC00FB68202283F83D20FB681B685B6903F0DE
:101CEC000203022B29D1FB681B681A68FB681B686E
:101CFC0042F400721A6000233B61FB681B685B694D
:101D0C003B61FB681B689B693B613B69FB6900930A
:101D1C00192301222149F86800F0C6F80346002B6C
:101D2C0001D0012336E0FB68202283F83D20FB68BC
:101D3C00002283F83C2000232CE0FB681B681A6807
:101D4C00FB681B6842F400721A60FB681B686FF436
:101D5C0080625A61FB690093192301220F49F868CC
:101D6C0000F0A2F80346002B01D0012312E0BB695E
:101D7C000133BB61BA697B689A42FFF432AFFB68EE
:101D8C00202283F83D20FB68002283F83C200123AD
:101D9C0000E0022318462037BD4680BD020010002B
:101DAC000000FFFF80B588B002AFF8607A603B603E
:101DBC000B467B81FB68DB6A7B617B69082B06D059
:101DCC007B69012B03D07B6913F5803F08D1FB683D
:101DDC001B681A68FB681B6842F480721A600BE07F
:101DEC00FB681B6B122B07D1FB681B681A68FB681E
:101DFC001B6842F480721A603B6800937B68002277
:101E0C004FF00111F86800F04FF80346002B0DD08D
:101E1C00FB681B681B6803F48073B3F5807F03D1E8
:101E2C00FB684FF400721A64032335E0FB681B69EE
:101E3C00B3F5804F08D17B89DBB21A46FB681B686F
:101E4C0002F0FE021A611BE07B89DB11DBB203F0AE
:101E5C000603DBB263F00F03DAB2FB681B681A618E
:101E6C003B687A680E49F86800F098F80346002B36
:101E7C0001D0012310E07B89DAB2FB681B681A6180
:101E8C003B687A680749F86800F088F80346002B2D
:101E9C0001D0012300E0002318461837BD4680BD51
:101EAC00080001000200010080B584B000AFF860AA
:101EBC00B9603B601346FB7148E03B68B3F1FF3FF0
:101ECC0044D0FFF799F80246BB69D31A3A689A4294
:101EDC0002D33B68002B39D1BB681B0CDBB2012B46
:101EEC000DD1FB681B685B69DA43BB6813409BB27E
:101EFC00002B0CBF01230023DBB21A460CE0FB685D
:101F0C001B689B69DA43BB6813409BB2002B0CBF68
:101F1C0001230023DBB21A46FB799A4216D1FB68E7
:101F2C0000221A63FB68202283F83D20FB68002204
:101F3C0083F83E20FB681B6C43F02002FB681A649C
:101F4C00FB68002283F83C20012323E0BB681B0CB8
:101F5C00DBB2012B0DD1FB681B685B69DA43BB68F4
:101F6C0013409BB2002B0CBF01230023DBB21A469B
:101F7C000CE0FB681B689B69DA43BB6813409BB29F
:101F8C00002B0CBF01230023DBB21A46FB799A42CB
:101F9C0093D0002318461037BD4680BD80B584B061
:101FAC0000AFF860B9607A603B6071E0FB681B6859
:101FBC005B6903F48063B3F5806F23D1FB681B6806
:101FCC001A68FB681B6842F400721A60FB681B6895
:101FDC006FF480625A61FB6800221A63FB6820224E
:101FEC0083F83D20FB68002283F83E20FB681B6CC5
:101FFC0043F00402FB681A64FB68002283F83C205F
:10200C00012367E07B68B3F1FF3F41D0FEF7F4FF9B
:10201C0002463B68D31A7A689A4202D37B68002B3B
:10202C0036D1BB681B0CDBB2012B0CD1FB681B68D7
:10203C005B69DA43BB6813409BB2002B14BF0123CE
:10204C000023DBB20BE0FB681B689B69DA43BB68BF
:10205C0013409BB2002B14BF01230023DBB2002BD7
:10206C0016D0FB6800221A63FB68202283F83D20FF
:10207C00FB68002283F83E20FB681B6C43F02002B7
:10208C00FB681A64FB68002283F83C20012321E0E2
:10209C00BB681B0CDBB2012B0CD1FB681B685B69AA
:1020AC00DA43BB6813409BB2002B14BF01230023FF
:1020BC00DBB20BE0FB681B689B69DA43BB6813401F
:1020CC009BB2002B14BF01230023DBB2002B7FF447
:1020DC006DAF002318461037BD4680BD80B584B067
:1020EC0000AFF860B9607A6034E0F86800F086F808
:1020FC000346002B01D0012334E0BB68B3F1FF3F52
:10210C0028D0FEF779FF02467B68D31ABA689A4248
:10211C0002D3BB68002B1DD1FB681B685B6903F005
:10212C008003802B16D0FB6800221A63FB682022E8
:10213C0083F83D20FB68002283F83E20FB681B6C73
:10214C0043F02002FB681A64FB68002283F83C20F1
:10215C00012307E0FB681B685B6903F08003802B9D
:10216C00C3D1002318461037BD4680BD80B584B05E
:10217C0000AFF860B9607A6034E0F86800F03EF8BF
:10218C000346002B01D0012334E0BB68B3F1FF3FC1
:10219C0028D0FEF731FF02467B68D31ABA689A4200
:1021AC0002D3BB68002B1DD1FB681B685B6903F075
:1021BC000403042B16D0FB6800221A63FB68202250
:1021CC0083F83D20FB68002283F83E20FB681B6CE3
:1021DC0043F02002FB681A64FB68002283F83C2061
:1021EC00012307E0FB681B685B6903F00403042B05
:1021FC00C3D1002318461037BD4680BD80B483B0D0
:10220C0000AF78607B681B685B6903F48063B3F58F
:10221C00806F1BD17B681B686FF480625A617B688E
:10222C0000221A637B68202283F83D207B68002201
:10223C0083F83E207B681B6C43F004027B681A64B5
:10224C007B68002283F83C20012300E00023184621
:10225C000C37BD4680BC704780B584B000AF786049
:10226C007B68002B01D10123E8E07B6893F8913265
:10227C00DBB2002B06D17B68002283F890227868B1
:10228C00FEF71EFE7B68032283F891227B680022F6
:10229C005A717B681B68184601F02FFB7B68186825
:1022AC007B6804330ECB01F01BFB0346002B05D0DF
:1022BC007B68022283F891220123BFE07B681B68B4
:1022CC000021184601F033FB0346002B05D07B6838
:1022DC00022283F891220123B0E00023FB733EE03D
:1022EC00FA7B796813469B001344DB000B441133D3
:1022FC0001221A70FA7B796813469B001344DB00A9
:10230C000B441033FA7B1A70FA7B796813469B00E6
:10231C001344DB000B44133300221A70FA7B7968E8
:10232C0013469B001344DB000B44203300221A603D
:10233C00FA7B796813469B001344DB000B4424336F
:10234C0000221A60FB7B79685A1C13469B001344CD
:10235C00DB000B4400221A60FB7B0133FB737B68B0
:10236C001B79FA7B9A42BBD30023FB7344E0FA7BC4
:10237C00796813469B001344DB000B4403F25113A2
:10238C0000221A70FA7B796813469B001344DB0019
:10239C000B4403F5A873FA7B1A70FA7B7968134621
:1023AC009B001344DB000B4403F2531300221A70FE
:1023BC00FA7B796813469B001344DB000B4403F54E
:1023CC00B07300221A60FA7B796813469B001344A1
:1023DC00DB000B4403F5B27300221A60FA7B7968B8
:1023EC0013469B001344DB000B4403F5B47300222B
:1023FC001A60FB7B0133FB737B681B79FA7B9A4277
:10240C00B5D37B6818687B6804330ECB01F09BFA5C
:10241C000346002B05D07B68022283F8912201230E
:10242C000CE07B6800225A737B68012283F89122AE
:10243C007B681B68184601F0A3FA00231846103776
:10244C00BD4680BD80B586B000AF78607B68002B40
:10245C0001D1012372E27B681B6803F00103002B9E
:10246C0000F08780924B5B6803F00C03042B0CD0BC
:10247C008F4B5B6803F00C03082B12D18C4B5B6801
:10248C0003F48033B3F5803F0BD1894B1B6803F405
:10249C000033002B6CD07B685B68002B68D1012368
:1024AC004CE27B685B68B3F5803F06D1804B1B68C0
:1024BC007F4A43F4803313602EE07B685B68002B0B
:1024CC000CD17B4B1B687A4A23F480331360784B16
:1024DC001B68774A23F4802313601DE07B685B68DC
:1024EC00B3F5A02F0CD1724B1B68714A43F48023B7
:1024FC0013606F4B1B686E4A43F4803313600BE020
:10250C006B4B1B686A4A23F480331360684B1B685F
:10251C00674A23F4802313607B685B68002B13D01D
:10252C00FEF76AFD386108E0FEF766FD02463B697E
:10253C00D31A642B01D9032300E25D4B1B6803F40F
:10254C000033002BF0D014E0FEF756FD386108E0A4
:10255C00FEF752FD02463B69D31A642B01D90323C3
:10256C00ECE1534B1B6803F40033002BF0D100E07B
:10257C0000BF7B681B6803F00203002B63D04C4B3D
:10258C005B6803F00C03002B0BD0494B5B6803F02A
:10259C000C03082B1CD1464B5B6803F48033002BD7
:1025AC0016D1434B1B6803F00203002B05D07B684C
:1025BC001B69012B01D00123C0E13D4B1B6823F0AB
:1025CC00F8027B685B69DB00394913430B603AE026
:1025DC007B681B69002B20D0364B01221A60FEF75A
:1025EC000BFD386108E0FEF707FD02463B69D31A84
:1025FC00022B01D90323A1E12D4B1B6803F002032D
:10260C00002BF0D02A4B1B6823F0F8027B685B6927
:10261C00DB00274913430B6015E0264B00221A60A0
:10262C00FEF7EAFC386108E0FEF7E6FC02463B697F
:10263C00D31A022B01D9032380E11D4B1B6803F035
:10264C000203002BF0D17B681B6803F00803002BFE
:10265C003AD07B689B69002B19D0174B01221A606A
:10266C00FEF7CAFC386108E0FEF7C6FC02463B697F
:10267C00D31A022B01D9032360E10D4B5B6A03F0E3
:10268C000203002BF0D0012000F0CEFA1CE00A4B24
:10269C0000221A60FEF7B0FC38610FE0FEF7ACFCCC
:1026AC0002463B69D31A022B08D9032346E100BF2B
:1026BC00001002400000424280044242924B5B6A8E
:1026CC0003F00203002BE9D17B681B6803F00403C1
:1026DC00002B00F0A6800023FB758B4BDB6903F00D
:1026EC008053002B0DD1884BDB69874A43F0805314
:1026FC00D361854BDB6903F08053BB60BB6801235E
:10270C00FB75824B1B6803F48073002B18D17F4B35
:10271C001B687E4A43F480731360FEF76DFC3861CE
:10272C0008E0FEF769FC02463B69D31A642B01D919
:10273C00032303E1754B1B6803F48073002BF0D06B
:10274C007B68DB68012B06D16F4B1B6A6E4A43F02A
:10275C00010313622DE07B68DB68002B0CD16A4B04
:10276C001B6A694A23F001031362674B1B6A664AB2
:10277C0023F0040313621CE07B68DB68052B0CD18F
:10278C00614B1B6A604A43F0040313625E4B1B6A85
:10279C005D4A43F0010313620BE05B4B1B6A5A4A20
:1027AC0023F001031362584B1B6A574A23F00403AE
:1027BC0013627B68DB68002B15D0FEF71DFC3861BB
:1027CC000AE0FEF719FC02463B69D31A41F2883243
:1027DC00934201D90323B1E04B4B1B6A03F0020374
:1027EC00002BEED014E0FEF707FC38610AE0FEF790
:1027FC0003FC02463B69D31A41F28832934201D959
:10280C0003239BE0404B1B6A03F00203002BEED129
:10281C00FB7D012B05D13C4BDB693B4A23F08053FC
:10282C00D3617B68DB69002B00F08780364B5B68DB
:10283C0003F00C03082B61D07B68DB69022B46D1BB
:10284C00334B00221A60FEF7D7FB386108E0FEF725
:10285C00D3FB02463B69D31A022B01D903236DE04B
:10286C00294B1B6803F00073002BF0D17B681B6AAB
:10287C00B3F5803F08D1244B5B6823F400327B68AE
:10288C009B68214913434B601F4B5B6823F4741204
:10289C007B68196A7B685B6A0B431B4913434B606B
:1028AC001B4B01221A60FEF7A7FB386108E0FEF70C
:1028BC00A3FB02463B69D31A022B01D903233DE04B
:1028CC00114B1B6803F00073002BF0D035E0104B5C
:1028DC0000221A60FEF790FB386108E0FEF78CFBD3
:1028EC0002463B69D31A022B01D9032326E0064B7F
:1028FC001B6803F00073002BF0D11EE07B68DB69D2
:10290C00012B07D1012319E0001002400070004098
:10291C00600042420B4B5B68FB60FB6803F4803247
:10292C007B681B6A9A4206D1FB6803F470127B68C1
:10293C005B6A9A4201D0012300E000231846183745
:10294C00BD4680BD0010024080B584B000AF7860F9
:10295C0039607B68002B01D10123D0E06A4B1B68E6
:10296C0003F007033A689A4210D9674B1B6823F0AF
:10297C00070265493B6813430B60634B1B6803F00C
:10298C0007033A689A4201D00123B8E07B681B68C0
:10299C0003F00203002B20D07B681B6803F00403B8
:1029AC00002B05D0594B5B68584A43F4E0635360E5
:1029BC007B681B6803F00803002B05D0534B5B6846
:1029CC00524A43F460535360504B5B6823F0F0025F
:1029DC007B689B684D4913434B607B681B6803F015
:1029EC000103002B40D07B685B68012B07D1474B60
:1029FC001B6803F40033002B15D101237FE07B68A7
:102A0C005B68022B07D1414B1B6803F00073002B52
:102A1C0009D1012373E03D4B1B6803F00203002B2B
:102A2C0001D101236BE0394B5B6823F003027B6817
:102A3C005B68364913434B60FEF7DEFAF8600AE038
:102A4C00FEF7DAFA0246FB68D31A41F28832934257
:102A5C0001D9032353E02D4B5B6803F00C027B6818
:102A6C005B689B009A42EBD1274B1B6803F0070372
:102A7C003A689A4210D2244B1B6823F00702224971
:102A8C003B6813430B60204B1B6803F007033A6849
:102A9C009A4201D0012332E07B681B6803F00403E7
:102AAC00002B08D0194B5B6823F4E0627B68DB6871
:102ABC00164913434B607B681B6803F00803002B1B
:102ACC0009D0124B5B6823F460527B681B69DB00F6
:102ADC000E4913434B6000F021F802460B4B5B6828
:102AEC001B0903F00F030A49CB5C22FA03F3094AD2
:102AFC001360094B1B681846FEF73CFA0023184676
:102B0C001037BD4680BD00BF0020024000100240BF
:102B1C00D04100088C0000209000002080B487B0C9
:102B2C0000AF0023FB600023BB6000237B6100230C
:102B3C007B6000233B611E4B5B68FB60FB6803F012
:102B4C000C03042B02D0082B03D027E0194B3B615C
:102B5C0027E0FB689B0C03F00F03174AD35C7B60E8
:102B6C00FB6803F48033002B10D0114B5B685B0CBB
:102B7C0003F00103114AD35CBB607B680D4A03FB75
:102B8C0002F2BB68B2FBF3F37B6104E07B680C4A96
:102B9C0002FB03F37B617B693B6102E0054B3B610C
:102BAC0000BF3B6918461C37BD4680BC704700BF50
:102BBC000010024000127A00E8410008F8410008B9
:102BCC0000093D0080B400AF024B1B681846BD469F
:102BDC0080BC70478C00002080B500AFFFF7F2FF7F
:102BEC000246054B5B681B0A03F007030349CB5CE9
:102BFC0022FA03F3184680BD00100240E0410008A1
:102C0C0080B500AFFFF7DEFF0246054B5B68DB0AC1
:102C1C0003F007030349CB5C22FA03F3184680BD8B
:102C2C0000100240E041000880B485B000AF78602D
:102C3C000A4B1B680A4AA2FB03235B0A7A6802FB55
:102C4C0003F3FB6000BFFB685A1EFA60002BF9D13E
:102C5C0000BF00BF1437BD4680BC70478C000020FD
:102C6C00D34D621080B586B000AF786000233B6115
:102C7C000023FB607B681B6803F00103002B7DD0F5
:102C8C000023FB754F4BDB6903F08053002B0DD1F8
:102C9C004C4BDB694B4A43F08053D361494BDB69A6
:102CAC0003F08053BB60BB680123FB75464B1B686C
:102CBC0003F48073002B18D1434B1B68424A43F436
:102CCC0080731360FEF798F9386108E0FEF794F909
:102CDC0002463B69D31A642B01D903236DE03A4BAE
:102CEC001B6803F48073002BF0D0364B1B6A03F483
:102CFC004073FB60FB68002B2ED07B685B6803F491
:102D0C004073FA689A4227D02E4B1B6A23F4407307
:102D1C00FB602E4B01221A602C4B00221A60294AB0
:102D2C00FB681362FB6803F00103002B14D0FEF761
:102D3C0063F938610AE0FEF75FF902463B69D31A82
:102D4C0041F28832934201D9032336E01D4B1B6AB2
:102D5C0003F00203002BEED01A4B1B6A23F44072D3
:102D6C007B685B68174913430B62FB7D012B05D114
:102D7C00144BDB69134A23F08053D3617B681B68C7
:102D8C0003F00203002B08D00E4B5B6823F4404287
:102D9C007B689B680B4913434B607B681B6803F093
:102DAC001003002B08D0074B5B6823F480027B6870
:102DBC00DB68044913434B60002318461837BD46A3
:102DCC0080BD00BF00100240007000404004424231
:102DDC0080B582B000AF78607B68002B01D10123F5
:102DEC0042E07B6893F84130DBB2002B06D17B6864
:102DFC00002283F840207868FDF7EEFF7B682422E0
:102E0C0083F841207B681B68DA687B681B6822F4B6
:102E1C000052DA60786800F0D5FC7B681B681A6990
:102E2C007B681B6822F490421A617B681B685A69A4
:102E3C007B681B6822F02A025A617B681B68DA687F
:102E4C007B681B6842F40052DA607B6800225A648B
:102E5C007B68202283F841207B68202283F8422063
:102E6C007B6800225A63002318460837BD4680BD94
:102E7C0080B584B000AFF860B9601346FB80FB6886
:102E8C0093F84230DBB2202B12D1BB68002B02D05E
:102E9C00FB88002B01D101230BE0FB6800221A6395
:102EAC00FB881A46B968F86800F0B7FA034600E0E8
:102EBC00022318461037BD4680BD000080B5BAB05D
:102ECC0000AF78607B681B681B68C7F8E4307B68D0
:102EDC001B68DB68C7F8E0307B681B685B69C7F868
:102EEC00DC300023C7F8D8300023C7F8D430D7F82B
:102EFC00E43003F00F03C7F8D830D7F8D830002BE4
:102F0C000FD1D7F8E43003F02003002B09D0D7F809
:102F1C00E03003F02003002B03D0786800F093FB23
:102F2C005BE2D7F8D830002B00F0DE80D7F8DC302D
:102F3C0003F00103002B06D1D7F8E03003F49073B3
:102F4C00002B00F0D180D7F8E43003F00103002B04
:102F5C000BD0D7F8E03003F48073002B05D07B68DE
:102F6C005B6C43F001027B685A64D7F8E43003F0E1
:102F7C000403002B0BD0D7F8DC3003F00103002B3B
:102F8C0005D07B685B6C43F002027B685A64D7F80F
:102F9C00E43003F00203002B0BD0D7F8DC3003F045
:102FAC000103002B05D07B685B6C43F004027B684B
:102FBC005A64D7F8E43003F00803002B11D0D7F88B
:102FCC00E03003F02003002B05D1D7F8DC3003F000
:102FDC000103002B05D07B685B6C43F008027B6817
:102FEC005A647B685B6C002B00F0F281D7F8E430FC
:102FFC0003F02003002B08D0D7F8E03003F02003B7
:10300C00002B02D0786800F01EFB7B681B685B69A4
:10301C0003F04003002B14BF01230023DBB2C7F8DD
:10302C00D4307B685B6C03F00803002B03D1D7F81A
:10303C00D430002B4FD0786800F028FA7B681B68DE
:10304C005B6903F04003002B41D07B681B68143391
:10305C00C7F89C30D7F89C3053E8003FC7F898303D
:10306C00D7F8983023F04003C7F8D0307B681B6842
:10307C001433D7F8D020C7F8A820C7F8A430D7F855
:10308C00A410D7F8A82041E80023C7F8A030D7F83F
:10309C00A030002BD9D17B68DB6B002B13D07B6865
:1030AC00DB6B7E4A5A637B68DB6B1846FEF7F6F8DF
:1030BC000346002B16D07B68DB6B5B6B7A68D26B9C
:1030CC00104698470EE0786800F093F90AE07868AB
:1030DC0000F08FF906E0786800F08BF97B6800222D
:1030EC005A6475E100BF73E17B681B6B012B40F0E8
:1030FC004F81D7F8E43003F01003002B00F0488127
:10310C00D7F8E03003F01003002B00F041810023CE
:10311C00BB607B681B681B68BB607B681B685B685B
:10312C00BB60BB687B681B685B6903F04003002BCA
:10313C0000F0B6807B68DB6B1B685B68A7F8BE3061
:10314C00B7F8BE30002B00F045817B689B8DB7F83B
:10315C00BE209A4280F03E817B68B7F8BE20DA85AB
:10316C007B68DB6B9B69202B00F088807B681B687D
:10317C000C33C7F88830D7F8883053E8003FC7F8CD
:10318C008430D7F8843023F48073C7F8B8307B6868
:10319C001B680C33D7F8B820C7F89420C7F89030C8
:1031AC00D7F89010D7F8942041E80023C7F88C305A
:1031BC00D7F88C30002BD9D17B681B6814337B6714
:1031CC007B6F53E8003F3B673B6F23F00103C7F86D
:1031DC00B4307B681B681433D7F8B420C7F8802050
:1031EC00FB67F96FD7F8802041E80023BB67BB6F02
:1031FC00002BE1D17B681B6814333B663B6E53E8B4
:10320C00003FFB65FB6D23F04003C7F8B0307B68D3
:10321C001B681433D7F8B020FA66BB66B96EFA6E29
:10322C0041E800237B667B6E002BE3D17B68202278
:10323C0083F842207B6800221A637B681B680C337E
:10324C00FB64FB6C53E8003FBB64BB6C23F01003C6
:10325C00C7F8AC307B681B680C33D7F8AC20BA6568
:10326C007B65796DBA6D41E800233B653B6D002BA6
:10327C00E3D17B68DB6B1846FDF7D5FF7B68022238
:10328C005A637B689A8D7B68DB8D9BB2D31A9BB299
:10329C001946786800F0B6F89CE000BF5D35000870
:1032AC007B689A8D7B68DB8D9BB2D31AA7F8CE30E6
:1032BC007B68DB8D9BB2002B00F08E80B7F8CE3094
:1032CC00002B00F089807B681B680C33BB63BB6BE5
:1032DC0053E8003F7B637B6B23F49073C7F8C830D3
:1032EC007B681B680C33D7F8C8207A643B64396C54
:1032FC007A6C41E80023FB63FB6B002BE3D17B680A
:10330C001B6814337B627B6A53E8003F3B623B6A69
:10331C0023F00103C7F8C4307B681B681433D7F85B
:10332C00C4203A63FB62F96A3A6B41E80023BB6242
:10333C00BB6A002BE3D17B68202283F842207B6898
:10334C0000221A637B681B680C333B613B6953E8B2
:10335C00003FFB60FB6823F01003C7F8C0307B68AC
:10336C001B680C33D7F8C020FA61BB61B969FA69E4
:10337C0041E800237B617B69002BE3D17B6802224F
:10338C005A63B7F8CE301946786800F03BF823E062
:10339C00D7F8E43003F08003002B09D0D7F8E030E5
:1033AC0003F08003002B03D0786800F0E5F814E0FC
:1033BC00D7F8E43003F04003002B0ED0D7F8E03000
:1033CC0003F04003002B08D0786800F024F904E0E7
:1033DC0000BF02E000BF00E000BFE837BD4680BD83
:1033EC0080B483B000AF786000BF0C37BD4680BCA2
:1033FC00704780B483B000AF786000BF0C37BD4617
:10340C0080BC704780B483B000AF78600B467B8083
:10341C0000BF0C37BD4680BC704780B485B000AF90
:10342C00F860B9601346FB80FB68BA689A62FB6867
:10343C00FA889A85FB68FA88DA85FB6800225A6458
:10344C00FB68222283F84220FB681B69002B07D003
:10345C00FB681B68DA68FB681B6842F48072DA60F0
:10346C00FB681B685A69FB681B6842F001025A61D1
:10347C00FB681B68DA68FB681B6842F02002DA60A4
:10348C00002318461437BD4680BC704780B495B0F5
:10349C0000AF78607B681B680C337B637B6B53E8F5
:1034AC00003F3B633B6B23F49073FB647B681B68AE
:1034BC000C33FA6C3A64FB63F96B3A6C41E8002309
:1034CC00BB63BB6B002BE5D17B681B6814333B6281
:1034DC003B6A53E8003FFB61FB6923F00103BB64CB
:1034EC007B681B681433BA6CFA62BB62B96AFA6AFD
:1034FC0041E800237B627B6A002BE5D17B681B6B68
:10350C00012B19D17B681B680C33FB60FB6853E8FB
:10351C00003FBB60BB6823F010037B647B681B68B7
:10352C000C337A6CBA617B617969BA6941E8002322
:10353C003B613B69002BE5D17B68202283F842205C
:10354C007B6800221A6300BF5437BD4680BC7047AD
:10355C0080B584B000AF78607B685B6AFB60FB6809
:10356C000022DA85FB680022DA84F868FFF741FF55
:10357C0000BF1037BD4680BD80B485B000AF786009
:10358C007B6893F84130DBB2212B3ED17B689B6882
:10359C00B3F5805F14D17B681B69002B10D17B685D
:1035AC001B6AFB60FB681B881A467B681B68C2F3AE
:1035BC0008025A607B681B6A9A1C7B681A6208E0D6
:1035CC007B681B6A591C7A6811621A787B681B68C5
:1035DC005A607B68DB8C9BB2013B9BB27A681946C4
:1035EC00D184002B0FD17B681B68DA687B681B6861
:1035FC0022F08002DA607B681B68DA687B681B68E3
:10360C0042F04002DA60002300E00223184614372F
:10361C00BD4680BC704780B582B000AF78607B68D7
:10362C001B68DA687B681B6822F04002DA607B68F2
:10363C00202283F841207868FFF7D2FE0023184639
:10364C000837BD4680BD80B58CB000AF78607B6814
:10365C0093F84230DBB2222B40F0AE807B689B6843
:10366C00B3F5805F17D17B681B69002B13D1002346
:10367C00FB627B689B6ABB627B681B685B689BB266
:10368C00C3F308039AB2BB6A1A807B689B6A9A1CC4
:10369C007B689A6226E07B689B6AFB620023BB62B4
:1036AC007B689B68B3F5805F07D07B689B68002BB9
:1036BC000AD17B681B69002B06D17B681B685B6891
:1036CC00DAB2FB6A1A7008E07B681B685B68DBB2D5
:1036DC0003F07F03DAB2FB6A1A707B689B6A5A1C90
:1036EC007B689A627B68DB8D9BB2013B9BB27A68EC
:1036FC001946D185002B5DD17B681B68DA687B6825
:10370C001B6822F02002DA607B681B68DA687B6831
:10371C001B6822F48072DA607B681B685A697B68CC
:10372C001B6822F001025A617B68202283F8422038
:10373C007B6800225A637B681B6B012B35D17B683D
:10374C0000221A637B681B680C337B617B6953E82E
:10375C00003F3B613B6923F010037B627B681B6875
:10376C000C337A6A3A62FB61F9693A6A41E80023E0
:10377C00BB61BB69002BE5D17B681B681B6803F040
:10378C001003102B0AD10023FB607B681B681B689D
:10379C00FB607B681B685B68FB60FB687B689B8DD0
:1037AC0019467868FFF72EFE02E07868FDF740FABC
:1037BC00002302E0002300E0022318463037BD4608
:1037CC0080BD000080B584B000AF78607B681B685A
:1037DC001B6923F440517B68DA687B681B680A43D9
:1037EC001A617B689A687B681B691A437B685B6902
:1037FC001343BB607B681B68DB6823F4B05323F076
:10380C000C037A681268B9680B43D3607B681B6839
:10381C005B6923F440717B689A697B681B680A4377
:10382C005A617B681B682C4A934203D1FFF7E8F975
:10383C00F86002E0FFF7D0F9F860FA6813469B00D5
:10384C0013449A001A447B685B689B00B2FBF3F349
:10385C00224AA2FB03235B091901FA6813469B0059
:10386C0013449A001A447B685B689B00B2FBF3F22A
:10387C001A4BA3FB02035B09642000FB03F3D31A6E
:10388C001B013233154AA2FB03235B0903F0F0033F
:10389C001944FA6813469B0013449A001A447B6837
:1038AC005B689B00B2FBF3F20C4BA3FB02035B09BE
:1038BC00642000FB03F3D31A1B013233074AA2FB2B
:1038CC0003235B0903F00F027B681B680A449A60B0
:1038DC0000BF1037BD4680BD003801401F85EB513D
:1038EC0080B485B000AFF860384680E80E00002345
:1038FC0018461437BD4680BC704780B485B000AF05
:10390C0078604FF43F43FB607B68B3F840309AB269
:10391C00FB689BB2DB439BB213409AB27B68A3F863
:10392C004020002318461437BD4680BC704780B435
:10393C0083B000AF78600B46FB70002318460C3741
:10394C00BD4680BC704780B485B000AFF860384687
:10395C0080E80E00FB680122A3F84020FB680022DF
:10396C00A3F84020FB680022A3F84420FB68002247
:10397C00A3F85020002318461437BD4680BC70476E
:10398C0080B483B000AF7860002318460C37BD4676
:10399C0080BC704703460244934200D1704703F841
:1039AC00011BF9E7034610B5013932B111F8014F8B
:1039BC00013A03F8014B002CF7D100211A44934231
:1039CC0000D110BD03F8011BF9E7000070B500260B
:1039DC000C4D0D4C641BA410A64209D100F01AF832
:1039EC0000260A4D0A4C641BA410A64205D170BDDA
:1039FC0055F8043B98470136EEE755F8043B9847D9
:103A0C000136F2E7044200080442000804420008B0
:103A1C0008420008F8B500BFF8BC08BC9E467047C9
:0C3A2C00F8B500BFF8BC08BC9E4670470F
:103A380030313233343536373839414243444546DC
:103A4800000000004550433A00000000454D505426
:103A580059000000656D70747900000000000000D6
:103A6800000000000000000000000000000000004E
:103A780000100010001000100010001000000010CE
:103A880000000000002800280028000000000000B6
:103A9800000000000000000000240024007C002436
:103AA8000048007C0048004800000000003800542E
:103AB8000050003800140054005400380010000072
:103AC800002000540058003000280054001400085A
:103AD80000000000001000280028001000340048F2
:103AE8000048003400000000001000100010000022
:103AF80000000000000000000000000000080010A6
:103B080000200020002000200020002000100008D5
:103B1800002000100008000800080008000800083D
:103B280000100020001000380010002800000000DD
:103B3800000000000000000000000000001000105D
:103B4800007C0010001000000000000000000000D1
:103B5800000000000000000000000010001000102D
:103B68000000000000000000000000380000000015
:103B7800000000000000000000000000000000003D
:103B880000000010000000000008000800100010ED
:103B98000010001000200020000000000038004441
:103BA8000044005400440044004400380000000071
:103BB800001000300050001000100010001000101D
:103BC8000000000000380044004400040008001011
:103BD8000020007C000000000038004400040018A9
:103BE8000004000400440038000000000008001829
:103BF800002800280048007C000800080000000099
:103C0800007C0040004000780004000400440038B4
:103C180000000000003800440040007800440044E0
:103C28000044003800000000007C00040008001078
:103C38000010002000200020000000000038004490
:103C480000440038004400440044003800000000EC
:103C58000038004400440044003C0004004400389C
:103C6800000000000000000000100000000000003C
:103C7800000000100000000000000000000000101C
:103C880000000000000000100010001000000000FC
:103C9800000C003000400030000C00000000000064
:103CA800000000000000007C0000007C0000000014
:103CB8000000000000000000006000180004001868
:103CC8000060000000000000003800440004000804
:103CD8000010001000000010000000000038004430
:103CE800004C0054005C0040004000380000000018
:103CF80000100028002800280028007C0044004408
:103D080000000000007800440044007800440044AB
:103D180000440078000000000038004400400040E3
:103D280000400040004400380000000000700048D7
:103D380000440044004400440048007000000000B3
:103D4800007C00400040007C004000400040007CB7
:103D580000000000007C0040004000780040004067
:103D680000400040000000000038004400400040CF
:103D7800005C004400440038000000000044004497
:103D88000044007C0044004400440044000000005B
:103D9800003800100010001000100010001000384B
:103DA80000000000000400040004000400040004F3
:103DB8000044003800000000004400480050006043
:103DC8000050004800480044000000000040004047
:103DD80000400040004000400040007C000000001F
:103DE8000044006C006C005400440044004400444B
:103DF8000000000000440064006400540054004CBB
:103E0800004C004400000000003800440044004416
:103E180000440044004400380000000000780044DA
:103E280000440044007800400040004000000000CA
:103E38000038004400440044004400440054003862
:103E48000004000000780044004400440078004862
:103E580000480044000000000038004400400030E2
:103E6800000800040044003800000000007C001036
:103E780000100010001000100010001000000000DA
:103E88000044004400440044004400440044003816
:103E980000000000004400440044002800280028D6
:103EA80000100010000000000044004400540054BA
:103EB8000054006C0028002800000000004400287E
:103EC800002800100010002800280044000000000E
:103ED80000440044002800280010001000100010C2
:103EE80000000000007C0004000800100010002002
:103EF8000040007C000000000018001000100010B6
:103F08000010001000100010001000180020002001
:103F18000010001000100010000800080000000049
:103F280000300010001000100010001000100010E9
:103F38000010003000100028002800440000000095
:103F48000000000000000000000000000000000069
:103F58000000000000000000000000FE002000102B
:103F68000000000000000000000000000000000049
:103F78000000000000380044003C0044004C0034BD
:103F88000000000000400040005800640044004465
:103F980000640058000000000000000000380044E1
:103FA8000040004000440038000000000004000405
:103FB8000034004C00440044004C00340000000071
:103FC8000000000000380044007C00400044003835
:103FD80000000000000C0010007C00100010001011
:103FE8000010001000000000000000000034004C29
:103FF80000440044004C00340004007800400040B5
:1040080000580064004400440044004400000000DC
:1040180000100000007000100010001000100010C8
:1040280000000000001000000070001000100010D8
:1040380000100010001000E0004000400048005050
:1040480000600050004800440000000000700010AC
:1040580000100010001000100010001000000000F8
:10406800000000000078005400540054005400542C
:1040780000000000000000000058006400440044F4
:104088000044004400000000000000000038004424
:104098000044004400440038000000000000000014
:1040A8000058006400440044006400580040004088
:1040B800000000000034004C00440044004C003470
:1040C80000040004000000000058006400400040A4
:1040D80000400040000000000000000000380044DC
:1040E80000300008004400380000000000200020D4
:1040F80000780020002000200020001800000000A8
:10410800000000000044004400440044004C003417
:1041180000000000000000000044004400280028BF
:1041280000280010000000000000000000540054A7
:104138000054006C00280028000000000000000067
:10414800004400280010001000280044000000006F
:10415800000000000044004400280028001000105F
:104168000010006000000000007C00080010002023
:104178000040007C00000000001800100010001033
:10418800002000200010001000100018001000107F
:104198000010001000100010001000100010001097
:1041A8000030001000100010000800080010001077
:1041B800001000300000000000000074004C0000F7
:1041C80000000000000000000000000000000000E7
:1041D80001020304060708090000000001020304A5
:1041E80002030405060708090A0B0C0D0E0F101030
:0441F80001020000C0
:0841FC0050BFFF7F010000002D
:04420400310100087C
:044208000D0100089C
:10420C00070A0000643A0008454D5054590000005C
:10421C000000000000000000000000000000000092
:10422C000000000000000000000000000000000082
:10423C000000000000000000000000000000000072
:10424C000000000000000000000000000000000062
:10425C000000000000000000000000000000000052
:10426C000000000000000000000000000000000042
:10427C000000000000000000000000000000000032
:10428C0000000000000000000000000000127A0096
:08429C00100000000100000009
:0400000508000F09D7
:00000001FF
